:020000040800F2
:1000000000200020E5430008414300084543000864
:1000100000000000000000000000000000000000E0
:10002000000000000000000000000000494300083C
:1000300000000000000000004D430008514300088C
:1000400035440008354400083544000835440008AC
:100050003544000835440008354400085D43000875
:10006000000000003544000835440008354400080D
:1000700035440008354400080000000069430008CA
:100080000000000000000000000000000000000070
:1000900035440008000000003544000835440008DD
:1000A00000000000354400080000000000000000CF
:1000B00079430008354400080000000000000000FB
:1000C00010B5064C2378002B07D1054B002B02D02E
:1000D000044800E000BF0123237010BD6C00002025
:1000E00000000000BC4C0008044B10B5002B03D0EE
:1000F0000349044800E000BF10BDC04600000000F6
:1001000070000020BC4C0008002243088B4274D3CE
:1001100003098B425FD3030A8B4244D3030B8B4208
:1001200028D3030C8B420DD3FF22090212BA030C11
:100130008B4202D31212090265D0030B8B4219D3F2
:1001400000E0090AC30B8B4201D3CB03C01A524112
:10015000830B8B4201D38B03C01A5241430B8B425A
:1001600001D34B03C01A5241030B8B4201D30B0343
:10017000C01A5241C30A8B4201D3CB02C01A52416A
:10018000830A8B4201D38B02C01A5241430A8B422D
:1001900001D34B02C01A5241030A8B4201D30B0216
:1001A000C01A5241CDD2C3098B4201D3CB01C01A30
:1001B000524183098B4201D38B01C01A524143093A
:1001C0008B4201D34B01C01A524103098B4201D328
:1001D0000B01C01A5241C3088B4201D3CB00C01A95
:1001E000524183088B4201D38B00C01A524143080D
:1001F0008B4201D34B00C01A5241411A00D2014632
:10020000524110467047FFE701B5002000F006F8A4
:1002100002BDC0460029F7D076E770477047C04658
:10022000002B11D1002A0FD1002900D1002802D0C3
:100230000021C943081C07B4024802A140180290DB
:1002400003BDC046D9FFFFFF03B4684601B502985D
:1002500000F024F8019B9E4602B00CBC7047C046DB
:1002600070B500220C4B04000D0000F02FFF002899
:1002700004D12000290000F08DFE70BD064B002245
:100280002000290000F03EFB00F084FE80231B06C6
:100290009C466044F1E7C0460000E041F0B54F469F
:1002A0004646D646C0B5040082B00D009146984639
:1002B0008B422FD82CD04146484600F02FFF290012
:1002C0000600200000F02AFF331A9C46203B9A4685
:1002D00000D576E04B46524693401F004B4662469F
:1002E00093401E00AF4228D825D05346A41BBD41E1
:1002F000002B00DA7BE0002200230092019301230F
:10030000524693400193012362469340009318E0C4
:100310008242D0D900220023009201930A9B002B35
:1003200001D01C605D600098019902B01CBC904631
:100330009946A246F0BDA342D7D9002200230092DD
:1003400001936346002BE9D0FB07984641467208AB
:100350000A437B0866460EE0AB4201D1A2420CD8AC
:10036000A41A9D41012024196D410021013E241849
:100370004D41002E06D0AB42EED9013E24196D410D
:10038000002EF8D100980199534600196941002BBD
:1003900023DB2B005246D3402A006446E2401C0077
:1003A00053461500002B2DDB26005746BE40330078
:1003B00026006746BE403200801A994100900191A4
:1003C000ACE7624620239B1A4A46DA406146130096
:1003D00042468A4017001F4380E7624620239B1A4B
:1003E0002A0066469A402300F3401343D4E762464E
:1003F000202300219B1A0022009101920122DA4061
:10040000019280E72023624626009B1ADE402F00DF
:10041000B0466646B74046463B003343C8E7C04651
:10042000F0B55746DE464E464546E0B583460600E3
:100430000F03480087B092461D003F0B400DCC0FC4
:10044000002800D16FE0DE4B984238D08023FF00B7
:100450001B041F43730F3B430193DA4B002799465C
:1004600000239B46F60081442B0369001B0B524678
:100470009846490DED0F002900D185E0D04B9942F7
:1004800000D173E04346DA0080231B041343524635
:10049000CC48520F84461343524600206144D20098
:1004A00089442100694000918C46012149448A46D3
:1004B0000F2F00D990E0C449BF00CF59BF465B461B
:1004C0003B43019300D06AE10223082700268146BE
:1004D0009B46C9E732005846019B614600910228BD
:1004E00000D175E0032800D1FEE1012800D02CE105
:1004F00000230027002600253F032A0D3F0BB348A9
:1005000012053A4302401B051343009A5B00D107D2
:100510005B080B433000190007B03CBC904699467D
:10052000A246AB46F0BD5B463B43019300D12FE1B1
:10053000002F00D1A5E1380000F0D2FD03000B3BF5
:100540001C2B00DD96E11D22D31A5A460100DA4029
:100550005E4608398F4013008E403B4301939C4B0D
:1005600000271B1A994600239B467DE741465346C8
:100570000B4393498C46E144002B00D01AE1022240
:100580000220174300228CE7134300D10DE14346BC
:10059000002B00D181E1404600F0A2FD02000B3AA1
:1005A0001C2A00DD72E10100434608398B40984661
:1005B0001D239A1A5346D3401A004346134352460A
:1005C0008A404946081A824989468144002068E7E2
:1005D0007B4B002700268EE7140C1204120C11002E
:1005E000370C3604350C794328008C462E006043C6
:1005F0006044834656432100300C80465846794378
:1006000040440291844506D98846802149028C469F
:10061000E044414602913604010C360C00048B463E
:1006200081191E0C1B041B0C0391190079438C4685
:10063000280075436544A8465843050C4544774354
:10064000A94203D9802149028C466744290C8C4673
:1006500039000004000C2D042D186144AB440591B1
:100660005946049101990F043F0C080C390051437D
:100670004243904602008C46090C8B4662437C4301
:1006800044445C44A04503D9802149028846424441
:10069000210C884661460904090C8C4639005943EF
:1006A000434370437E430F0CF6182404BE19644480
:1006B00042448C46B34203D980235B0298464044AF
:1006C000029B61469846049B370443449B46AB45D6
:1006D000AD416B420D0405992D0C8C467F19674482
:1006E000FD18A8465D462D19A542A44193466442D3
:1006F000A446C344DC448F42BF4198459B41934587
:100700009241A445A4415B427F421F43360C5242B2
:100710006442BF192243BF18624638184302D20D03
:10072000039913436A020A43501E82416146ED0D4C
:100730002A434E023243D90100D4B3E001265008C7
:1007400032400243DE0732435B08224C5444002C03
:1007500062DD510709D00F201040042805D0101D7C
:100760009042924152429B180200D90104D5802444
:100770001948E400034054441848844200DD27E748
:100780005E075B02D2081F0B630516435B0DB2E6E2
:10079000002399460133042700269B4664E6032381
:1007A000019781460C279B465EE6012201201743F4
:1007B000002276E6032303201F43434671E6C0462A
:1007C000FF07000001FCFFFFD44E0008FFFF0F8071
:1007D0000DFCFFFFFF030000FFFFFFFEFE07000010
:1007E0000023802700933F030026434B83E6019BB1
:1007F0003200A446584670E6AC466EE68027019962
:100800003F0339422DD03B422BD11F433F033F0BC7
:1008100000951600384B6EE601252D1B382D00DDA6
:1008200066E61F2D40DC35481C005044160082400F
:100830008440EE40501E824134431443EB40620733
:1008400009D00F222240042A05D02200141D944210
:10085000804140421B181A023ED501230027002682
:1008600049E68027019B3F031F433F033F0B009452
:10087000214B40E603005A46283B9A40002601924D
:100880006DE6584600F02CFC203057E60300524637
:10089000283B9A401300002293E6504600F020FCCB
:1008A00020307BE6CA4650E71F201E004042041B52
:1008B000E640202D03D0124C5444A3401A43501E4E
:1008C0008241324307260027164009D00F2000231B
:1008D000104014000428B9D122005E075B021F0BF0
:1008E000D2081643002306E680273F031F433F0339
:1008F0003F0B1600004BFEE5FF0700001E04000042
:100900003E040000F8B557464E464546DE460C000C
:100910000903E0B5490A460F5F0031431E03DB0FB0
:10092000760A9B46530F3343C84E6500C000E40F60
:10093000D2006D0DA24681467F0D9C469046B7427F
:1009400000D1B9E05B46012673409B46EE1BA345F0
:1009500000D183E0002E63DD002F00D0B1E06346BC
:10096000134300D123E1731E002B00D0BAE1861A95
:100970006346B04280410125C91A4042091A0B0260
:1009800000D447E149024B0A98464346002B00D168
:1009900089E1404600F0A4FB0300083B1F2B00DD6B
:1009A0007CE120223000D21A4146D040994002001A
:1009B0009E400A439D4200DD6AE15D1B6B1C1F2BBC
:1009C00000DD94E1202110003500C91A8E40DA4084
:1009D0008840DD40711E8E4111000722284300250A
:1009E00006433240002A09D00F233340042B05D0A0
:1009F000331DB342B641764289191E000B0200D462
:100A00003DE26A1C914B55056D0D9A4200D119E1EA
:100A10008F4AF6080A40570752023743120B9BE0F1
:100A2000002E00D0C5E06E1C7605760D012E00DC90
:100A300048E16746861ACB1BB042BF417F42B846A9
:100A40001F004346FF1A3B00B8461B0200D55FE17A
:100A500037439AD100220024002579E0002E00DCE3
:100A6000FAE0002F00D18DE0784B9D4267D08023C3
:100A700067461B041F43BC46382E00DC52E1634628
:100A800013435A1E93411E18864280414042091862
:100A90000B0200D4BEE06D4B01359D4200D1D2E087
:100AA0006B4A73080A4001210E401E435108D307C8
:100AB00007221E43324095E71E00164300D045E74B
:100AC00040E7624B9D423AD0802367461B041F4398
:100AD000BC46382E00DDEBE01F2E00DC3AE133008F
:100AE0006746203BDF403B00202E05D04027BF1B40
:100AF0006646BE40324390464646721E9641334398
:100B0000DAE0002B00D114E26346134300D168E120
:100B100080234E07C008C9081B030643194208D0AA
:100B20006046C008184204D163460100D2085E073F
:100B30001643F3009946C900720F444D11434B46CA
:100B4000DE08424B4F073743CA089D4200D16EE092
:100B500012036D05120B6D0D00211203130B0A0D0C
:100B600012051A433B4B2D0513402B435B00E40752
:100B70005B082343380019003CBC90469946A246C6
:100B8000AB46F8BD6346134311D0731E002B00D053
:100B900007E18618864280416144404209180125D8
:100BA0000B0237D502257BE73E00614691463500B2
:100BB000C5E75C46002D00D0E1E00B000343F3D015
:100BC000731C00D1ACE1214B9F4200D13AE1F343C9
:100BD000382B00DD6FE11F2B00DD8CE120250E009E
:100BE000ED1AAE40B0460600AA46DE404546354303
:100BF0002E005546D940A8406346451EA8415B1AC1
:100C00009C463043161AB242924163465242991AA8
:100C10003D00B4E607223240002A00D0E4E60B4B48
:100C2000F6084F073743CA089D4200D090E73B00C3
:100C3000134300D1A6E180231B031A431203120BB6
:100C4000024D89E715000022002785E7FF07000015
:100C5000FFFF7FFFFFFF0F80002E00D0C7E06B1C5F
:100C60005E05760D012E00DCF0E0C84DAB4200D1F0
:100C7000B9E085180A008542894162444942511809
:100C80000722CE076D082E43490832401D00A9E611
:100C9000BF49ED1A114007223240A3E6320028383E
:100CA0008240002686E6300000F01AFA203073E613
:100CB000634613435A1E9341C61AB04280414042D4
:100CC000091A5CE60E00674606431743002D5ED105
:100CD000002E00D0F3E0002F00D11EE15C466146FB
:100CE00091462CE7A94FBE427BD01E00F1E61000D2
:100CF0001F3DE840202B03D04021CB1A9A401643D9
:100D0000731E9E410722064332400021002583E7DF
:100D1000161A6346B2428041591A40420B1A98464D
:100D20005C4632E61F2E00DDABE02027BB1B9A4657
:100D300063465746BB40994613004F46F3401F4356
:100D40003B005746BA40571EBA4113436246F24031
:100D5000891898E62027BB1B9A4663465746BB4036
:100D6000994613004F46F3401F433B005746BA4095
:100D7000571EBA4113436246F240891A9CE7834BDF
:100D80009F425FD080252D047342294320E7002E27
:100D90000CD1002F00D1D0E05C46614691467B4DDE
:100DA000CDE67A4FBE421CD01E0065E6002F18D05B
:100DB000C0084E0706438020C9080003014208D03E
:100DC0006346DC08044204D12100DA46D2085E07FB
:100DD0001643F300994601245346C900720F11438C
:100DE0001C406A4DABE61D0000220027B4E6002D32
:100DF00059D10B00034300D1D6E6731C00D1B2E0F9
:100E0000624B9F421ED0F343382B6FDC1F2B00DD5B
:100E100097E020250E00ED1AAE40B0460600AA4627
:100E2000DE40454635432E005546A840D940451E74
:100E3000A8418C440643B6189642924151426144FF
:100E40003D0025E63D006146914678E60B000343F0
:100E5000002D00D055E6002BF5D06346134300D19A
:100E60006DE686188642804161444042091800229E
:100E70000B0200D4D0E6464B01351940B2E5B1462D
:100E80005DE633006746203BDF403B00202E05D067
:100E90004027BF1B6646BE40324390464646721E00
:100EA00096413343EFE5394B9F42CBD080252D044B
:100EB00073422943A8E70843411E8841A2E6002F58
:100EC00000D13CE66346861ACF1AB0429B415B4292
:100ED000FB1A98461B024ED5161A6346B24292413F
:100EE000591A5242891A5C4600227BE501430E00E2
:100EF000711E8E419FE71D000E00203DEE40B04662
:100F0000202B04D04025EB1A9940084381464846DF
:100F10004346411E8841184374E60022002417E628
:100F2000161A6346B2429241591A5242891A3D003A
:100F300025E561469146154D01E680220024120305
:100F400079E61D000E00203DEE40B046202B04D077
:100F50004025EB1A9940084381464E464346711E90
:100F60008E411E4367E7861896429B4161445B426F
:100F7000C9183D008CE547463743CED0072241468D
:100F8000324049E600273A00E6E5C046FF07000088
:100F9000FFFF7FFF30B5144D0A034B00120B5B0DB2
:100FA000C90F0024AB4211DD104CA34210DC802499
:100FB000640322430E4CE41A1F2C0CDD0D48C31AA7
:100FC000DA4013005C42002900D11C00200030BD33
:100FD000094BCC18FAE7094DE040AC4663449A400F
:100FE00013000343EEE7C046FE0300001D040000AB
:100FF0003304000013040000FFFFFF7FEDFBFFFF41
:1010000010B5041E25D000F06BF8144B1B1A5B05BD
:101010005B0D0A2812DD0B38844000222403240BC8
:101020000021100024030A0D240B120522430C4C4E
:101030001B05224013435B00590810BD020021002C
:10104000153291400A000B21081AC4402403240BD6
:10105000E6E7002300240022E2E7C0461E04000069
:10106000FFFF0F808446101C62468C46191C6346A5
:1010700000E0C0461FB500F0FDF8002801D40021B3
:10108000C8421FBD10B500F055F84042013010BDF8
:1010900010B500F0EFF8002801DB002010BD0120A2
:1010A00010BDC04610B500F0E5F8002801DD0020B5
:1010B00010BD012010BDC04610B500F077F8002823
:1010C00001DC002010BD012010BDC04610B500F0AD
:1010D0006DF8002801DA002010BD012010BDC046C7
:1010E0001C2101231B04984201D3000C10391B0A58
:1010F000984201D3000A08391B09984201D300091C
:10110000043902A2105C40187047C0460403020272
:1011100001010101000000000000000010B50029DD
:1011200003D1FFF7DDFF203002E0081CFFF7D8FFF6
:1011300010BDC046F0B54F464646D6468446C0B5BB
:101140008046194E18030F034D00000B5C008246C9
:101150003F0B6D0DC90F9146640DDB0F0120B542A9
:101160000AD0B44203D0A54201D157450CD01CBCD3
:1011700090469946A246F0BD66463E43F7D1AC4242
:10118000F5D154461443F2D10120C845EFD199421C
:1011900007D0002DEBD163461F433800471EB841EE
:1011A000E5E70020E3E7C046FF070000F0B54F4643
:1011B0004646D6464D00C0B50E03C90F8A462C4997
:1011C0001F035C008046360B6D0D91463F0B640D8E
:1011D000DB0F8D421ED08C4216D0002D1ED1304325
:1011E0008446002C01D13A4323D06246002A1AD00B
:1011F0009A4529D0514602200139084001381CBCCB
:1012000090469946A246F0BD39001143E5D0022030
:101210004042F4E73043FAD1AC420FD0002C0FD15A
:101220003A43E7D00CE00122013B93431800013020
:10123000E5E763460020002BE1D0DBE73A43E6D147
:101240009A45D7D1A542D5DCA54205DBBE42D1D80F
:1012500008D00020BE42D2D2504601230138984324
:101260000130CCE7C845C5D80020C845F4D3C6E74F
:10127000FF070000F0B54F464646D6464D00C0B5C4
:101280000E03C90F8A462E491F035C008046360BA9
:101290006D0D91463F0B640DDB0F8D4218D08C42D3
:1012A00011D0002D18D130438446002C1ED13A4372
:1012B0001CD163460020002B30D05146022001395A
:1012C000084001382AE039001143EAD0022025E025
:1012D0003043FBD1AC4226D0002C26D13A4324D156
:1012E0005146022001390840013817E06246002AC1
:1012F0000FD09A45E1D1A54205DBBE42DDD819D019
:101300000020BE420AD250460123013898430130E2
:1013100004E00122013B9343180001301CBC9046BD
:101320009946A246F0BD3A43D0D19A45C5D1A542CF
:10133000C3DCE0E7C845C0D80020C845E3D3EDE7EB
:10134000FF0700000023C25C0133002AFBD1581EB6
:1013500070470000FA21084B10B589000400186896
:10136000FEF7D2FE00F06CF801200022210040427E
:1013700000F030F8002010BD040000204021064A93
:1013800010B5136800200B431360FFF7E3FF02F072
:1013900045FF002010BDC04600200240024A1368ED
:1013A000013313607047C046A8000020014B186845
:1013B0007047C046A800002010B582B00190FFF72A
:1013C000F5FF0400FFF7F2FF019B001B9842F9D3E1
:1013D00002B010BDFF22032330B51400C5B22B406C
:1013E000DB009C4089010A40E4439A4000280BDB63
:1013F0000C4B80089C46C023800060449B00C15871
:101400000C402243C25030BD0F2307492B408C466D
:10141000083B9B089B006344D9690C402243DA6176
:10142000F1E7C04600E100E000ED00E01F231840B6
:101430001E3B8340014A13607047C04600E100E054
:101440000A4A431E012093420ED8C021084A094887
:101450005360036A09061B021B0A0B430362002345
:1014600000209360073313607047C046FFFFFF0002
:1014700010E000E000ED00E0054A1368042803D006
:1014800004218B431360704718431060FBE7C0468C
:1014900010E000E07047C04610B5FFF7FBFF10BD3D
:1014A000252310B5C35C022B03D00423C3630120A2
:1014B00010BD0E2103681A688A431A601A680D3934
:1014C0008A431A601B4A934227D01B4A934222D078
:1014D0001A4A934223D01A4A934223D0194A93427C
:1014E00023D0194A944663445A425341174A5B42F7
:1014F00013408022520494466344154A53602523C6
:101500000122C2540022013BC254836B002B0FD036
:1015100098470020CCE71023EFE70123EDE7802375
:101520005B00EAE780235B01E7E780235B02E4E7F7
:101530000020BDE7080002401C00024030000240CD
:10154000440002405800024094FFFDBF000010FF1D
:1015500000000240F0B5DE4657464E464546E0B52F
:101560000B6883B09C46002B00D180E001239A4693
:10157000644B002298466346019100935446944080
:10158000009D25406FD0019B102759680B00BB437D
:101590009946022B00D171E053009C460323664616
:1015A000B34001267642B346D9444E46DB43012E72
:1015B00000D883E0046867461C40A14603240C4021
:1015C000BC404F463C4367460460C4682340019CCE
:1015D000A468BC402343C36080235B05194242D00A
:1015E00056460327484C1740636B33436363474CAD
:1015F000BE00A4460F2793089B006344B740B4463F
:10160000A0269C68F605BC43B04211D0404EB042C3
:1016100000D171E03F4EB1460226484505D03E4E0E
:10162000B1460526484500D006266746BE403443ED
:101630009C604346EC431B68CE035BD42340464684
:10164000336073688E0353D4234046467360B36897
:10165000CE024BD423404646B360F368890243D49C
:1016600023404146CB60009B0132D34086D103B07A
:101670003CBC90469946A246AB46F0BDD3089B00C1
:10168000C3181E6AB146072637001740BE000F2751
:10169000B740BB46B4464F465E46B743019EB94687
:1016A00037696646B740BC464F46664637431F62B9
:1016B00053009C4603236646B340DB438768019E84
:1016C0001F40BB46F7686646B740B9465F464E4680
:1016D00037438760466837005646A7430C093440B5
:1016E00094403C43446065E72B43BAE72B43B2E7A1
:1016F0002B43AAE72B43A2E756466746BE40344336
:1017000096E7C0460004014000100240000001407E
:101710000004005000080050001C0050002A01D1B5
:10172000816270478161FCE7044B10B55A69104231
:1017300002D0586102F0FEF910BDC046000401401D
:10174000F0211A4B10B5DA68114214D18022996B3E
:10175000520511421AD1996B154C0A43C0219A6364
:10176000144A490112680A40996B21409963C023C9
:101770005B019A4213D0002001230F490A689A4363
:1017800002430A600A681340584010BD094B1A68AA
:10179000C0235B011A40C0235B019A42EBD1074B87
:1017A0009C46604443425841E6E7C0460010024070
:1017B000FFFFFFEF00700040002002400040FFFFED
:1017C000F0B5CE46474680B5036883B00400DA071B
:1017D00036D50C21C848C2680A40082A00D1D6E094
:1017E000C26811400C2900D1CDE08022636852020A
:1017F000934200D174E1A021C9028B4200D10BE2D7
:10180000BD4DBE4829680140296029680A400192FF
:10181000019ABB492A680A402A60002B00D063E184
:10182000FFF7C4FD80260700B60205E0FFF7BEFD06
:10183000C01B642800D9ABE12B683342F6D1236882
:101840009A072BD50C21AC48C2680A40042A00D163
:101850007AE1C26811400C2900D171E1E268002AE6
:1018600000D129E10921A44F04253B688B43134390
:101870003B60FFF79BFD060005E0FFF797FD801B2F
:10188000022800D984E13B681D42F6D07A682369BA
:101890009C491B020A4013437B602368DA0645D447
:1018A0001A0717D56369944D002B00D1F1E001228E
:1018B0002B6D022613432B65FFF778FD070005E02B
:1018C000FFF774FDC01B022800D961E12B6D1E4299
:1018D000F6D023685B0700D482E08023864A5B054C
:1018E000916B0025194203D1916B01350B43936332
:1018F0008027854E7F0033683B4200D138E180224B
:10190000A368520093424DD0002B00D156E1A02194
:10191000C9008B4200D189E1774B7C491A6D0A409E
:101920001A651A6D7A490A401A653FE00C22724D19
:10193000EB681A4200D178E0A369002B00D129E1BD
:1019400080232A685B0013432B60FFF72FFD80265E
:101950000700B60005E0FFF729FDC01B022800D9EB
:1019600016E12B683342F6D06B686A4A1340226A4C
:1019700013436B606A68E36912021B06120A134381
:101980006B6023688CE7C268D20300D42DE75A4A03
:101990001268920300D453E76268002A00D04FE730
:1019A00001203DE0544A116D0B431365FFF7FEFC27
:1019B0008026594B8146504FB600984606E0FFF707
:1019C000F5FC4B46C01A404500D9E1E03B6D33427F
:1019D000F5D0012D04D1484A5049936B0B409363D5
:1019E000636A002B1BD00C22434DE9680A400C2A85
:1019F000D6D0022B00D123E12B68494A8024134022
:101A00002B60FFF7D3FCA404060005E0FFF7CEFC33
:101A1000801B022800D9BBE02B682342F6D10020AE
:101A200003B00CBC90469946F0BD2B689B0502D5CF
:101A3000A369002BB4D0E0222F4D206A6B681202FC
:101A40001340984200D8D4E0FFF77AFE0028A7D1CF
:101A50006A683049236A0A401A436A606968E26921
:101A600009021206090A0A436A60234A5B0BD1681D
:101A70008022013312029A4013000A062949120FEC
:101A80008A5C0020D340284A1360FFF763FC236878
:101A900006E701222B6D022693432B65FFF786FC98
:101AA000070004E0FFF782FCC01B022870D82B6DF2
:101AB0001E42F7D123680DE701220F4D04262B6843
:101AC00093432B60FFF772FC070004E0FFF76EFC06
:101AD000C01B02285CD82B681E42F7D12368DDE6C4
:101AE00005490A6813430B60FFF760FC8025070077
:101AF000014EAD021FE0C04600100240FFFFFEFF96
:101B0000FFFFFBFFFFE0FFFF00700040FFFEFFFF55
:101B1000FFFBFFFFFF1FFFFF88130000FFFFFFEF2A
:101B2000FFFFFFFEBC4E000804000020FFF73EFC54
:101B3000C01B64282CD833682B42F7D023687FE67B
:101B4000C268D20300D589E6564A1268520703D507
:101B5000E268012A00D023E7524822694168524DC9
:101B6000120229400A434260DA0600D498E6DDE614
:101B700033683B433360FFF719FC804633683B42D0
:101B800000D0BCE6FFF712FC4346C01A6428F5D922
:101B9000032045E72B68454A802613402B60FFF75A
:101BA00005FCB600070004E0FFF700FCC01B02289C
:101BB000EED82B683342F7D1236871E6394E3B4AA1
:101BC000336D802713403365336D394ABF001340AE
:101BD0003365FFF7EBFB374B8146984605E0FFF78F
:101BE000E5FB4B46C01A4045D2D8336D3B42F6D197
:101BF000EFE66B68304A134003436B606A68E36941
:101C000012021B06120A13436B60FFF799FD0028AE
:101C100000D0C5E6236A28E78021224BC902186854
:101C20000143196019680A431A605DE71D4B0139C9
:101C3000186DFF3901431965196D0A431A65B5E638
:101C40002B681E4A802613402B60FFF7AFFBB604BB
:101C5000070004E0FFF7AAFBC01B022898D82B68F6
:101C60003342F7D1E16AA36AEA680B4314490A4098
:101C70001343226B80241343EB6080232A685B04A8
:101C800013432B60FFF792FB064D0600A40405E00A
:101C9000FFF78CFB801B022800D979E72B682342D1
:101CA000F6D0BCE600100240FFE0FFFFFFFEFFFFA2
:101CB000FFFBFFFF88130000FF1FFFFFFFFFFFFE7A
:101CC000FFFF02FF0C23244A10B5D1680B40082BFC
:101CD0002BD00C2B12D0042B07D08020536800028D
:101CE0001B045B0F0133984010BD10681B4BC006EE
:101CF000C01718401A4B9C466044F5E78B02194800
:101D00001B0FC45C0902D368890F0131DB030ED4B9
:101D10001368DB0615D563011B1B9801C01AC000B0
:101D200000190002FEF7F0F9DEE70F48DCE760017A
:101D3000001B8301181AC00000190002FEF7E4F925
:101D4000D2E763011B1B9801C01AC0000019800272
:101D5000FEF7DAF9C8E7C0460010024000E548FF88
:101D60000024F400B04E000800093D00F8B5CE464E
:101D7000474601230C005A4980B50A6805001A40FD
:101D8000A2420CD20A689A4322430A600A681340AE
:101D9000A34204D001200CBC90469946F8BD2B68A4
:101DA0009A0706D5F0204F49CA688243A8680243C3
:101DB000CA60DB0728D54B4A6B681268022B56D0E5
:101DC000032B51D0012B67D09205E3D50321454E5B
:101DD000F2688A431343F360FFF7E8FA6B68070081
:101DE000022B49D0032B5AD0012B68D00C239846E4
:101DF0003D4B994604E0FFF7D9FAC01B484539D856
:101E00004246F3681A42F6D10121354A13680B4065
:101E1000A34205D913688B43136013681942B9D1E3
:101E20002B685A0706D52F493048CA680240E8682F
:101E30000243CA601B0707D52A492B69CA682C4888
:101E4000DB0002401343CB60FFF73CFF254B294AE0
:101E5000DB681B061B0FD35CD840274B18600020A3
:101E6000FFF778FA002096E79201AFD492E7920349
:101E7000ACD48FE703208EE70A3398461A4B994675
:101E800004E0FFF793FAC01B4845F3D84246F368D5
:101E90001340082BF5D1B7E7520797D47AE70933F7
:101EA0009846114B994604E0FFF780FAC01B48455D
:101EB000E0D84246F36813400C2BF5D1A4E70B336E
:101EC0009846094B994604E0FFF770FAC01B484555
:101ED000D0D84246F3681340042BF5D194E7C046AE
:101EE000002002400010024088130000FFF8FFFFAE
:101EF000FFC7FFFFBC4E000804000020014B18681C
:101F00007047C04604000020044B054ADB685B05AF
:101F10005B0FD35C034A1068D84070470010024042
:101F2000CC4E000804000020044B054ADB689B04EB
:101F30005B0FD35C034A1068D84070470010024022
:101F4000CC4E000804000020F8B5CE464746036892
:101F500080B504009A062ED5802300205C4A5B05DC
:101F6000916B8046194204D1916B0B43936301231B
:101F700098468026574D76002B68334244D06568DA
:101F8000C020C0212F002A00514E800333688902EF
:101F900007400A4003409F4256D08A424AD0336DE0
:101FA000194000D08FE04A490B6D1A4343460A6539
:101FB000012B39D023689A0706D50C204449CA6CF6
:101FC0008243A0680243CA645A0706D54049424882
:101FD000CA6C0240E0680243CA641A0706D53C494D
:101FE0003E48CA6C024020690243CA6400201B06B6
:101FF00006D5374A3A49D36C0B4061690B43D36429
:102000000CBC90469946F8BD2B6833432B60FFF714
:10201000CDF9070004E0FFF7C9F9C01B642850D8C8
:102020002B683342F7D0AAE78B6B2E4A13408B63A1
:102030002368C0E7336801209B03E1D4336D13406C
:1020400036D0934205D130E0336D194028D091420B
:1020500026D023689B0623D580211D4E0903306DB1
:10206000376D214B39433165316D204F0340394085
:1020700031653365C30513D5FFF798F980251C4BEF
:102080000700AD00994604E0FFF790F9C01B4845F2
:1020900017D8336D2B42F7D0C022656892022A40D0
:1020A000C0239B029A4200D07DE7C027BF032F4088
:1020B000074A104913680B401F431760C022920261
:1020C00071E703209CE7914200D16CE7C1E7C0466D
:1020D0000010024000700040FFF3FFFFFFCFFFFF42
:1020E000FFFFF3FFFFFFFFEFFFFFFCFFFFFFF7FF27
:1020F00088130000FFFFCFFF10B5042851D03DD951
:1021000008282BD0202837D1C0218024404A8902BA
:10211000106D136D64020B40A3423ED08024A402D4
:10212000A34263D08B4227D113680020234224D0DE
:102130001368C02280219203134089038B4264D02C
:10214000934260D0334A9446634458425841324BDC
:1021500040421840314B9C4660440EE0C0212C4A5E
:102160008901D36C0B402FD0802189018B4231D063
:102170008022520193422AD0002010BD0228FBD1B8
:102180000C23234AD16C0B401ED0082B22D0042BE9
:102190001DD000200C2BF0D1106D8005C00FC003A6
:1021A000EBE7C0211A4A0901D36C0B400CD0802404
:1021B0002401A34225D08020C000834207D0002004
:1021C0008B42DAD1106DE8E7FFF79EFED5E7FFF707
:1021D00079FDD2E704201368184043425841104B60
:1021E000404218400F4B9C466044C6E7022318400B
:1021F000434258410C4B404218400C4B9C466044B3
:10220000BBE71368E8E70A48B7E70A48B5E7C046FE
:10221000001002400000F0FFC0BDF0FF80841E00EF
:1022200000DC0BFF0024F400786FFFFF88900000B3
:1022300090D0030020A10700F0B5C646904600B537
:102240001D0006000C00FFF7B1F843460700002B05
:1022500012D1326801E06B1C17D193682340A3426E
:10226000F9D1002004BC9046F0BD002D15D0FFF739
:102270009DF8C01BA8420FD8326801E06B1CF4D156
:1022800093682340A342F9D0EBE7002D05D0FFF778
:102290008DF8C01BA842DCD93268E02153688B431B
:1022A00053601368A0398B4380211360B36A89019E
:1022B0008B4206D1116807480140116011680B4339
:1022C000136051230122F2540022013BF2540320F7
:1022D000C8E7C046FFDFFFFF70B5041E34D05123AE
:1022E000C35CDBB2002B2AD051210223402022689C
:1022F00063541368A568834313606368A0692B4324
:10230000E5682B4325692B4365692B43E5692B431E
:10231000256A2B43A56A2B438025AD0005402B433E
:1023200013600423000C0340606A03435360E36AB4
:1023300000201361002363650133635470BD502294
:10234000835401F08BFFCFE70120F7E7F0B551266A
:102350001D00835D0400DBB283B00220012B5DD140
:1023600000295DD00138002A58D04F30275C012F5A
:1023700000D1B5E023541133A355002380206365B9
:10238000A286E286A26AE364A364A363A387E387C9
:10239000216323688001824206D11868514E304083
:1023A00018601868104318608020A66800028642F2
:1023B00004D180201E68C0013043186040201E6890
:1023C000304202D11E6830431860E6686068002E13
:1023D00058D1002800D07EE0481C20630978D960DD
:1023E000E18E013989B2E186E18E00290DD11AE032
:1023F000226B531C236312782368DA60E28E013A61
:1024000092B2E286E28E002A0CD02B00002202213A
:102410002000FFF711FF0028EAD0032003B0F0BD31
:102420000120FBE7A26A802189018A4204D180222F
:10243000196852010A431A602B0000220221200071
:10244000FFF7FAFE002817D12B000122802120007F
:10245000FFF7F2FE00280FD1A368002B05D12368F7
:10246000DA6801929B680193019B51230122E25497
:102470000022013BE254D1E72022636D0320134385
:102480006365CBE7002822D108880231D860216338
:10249000E18E013989B2E186E18E00290DD1C2E7D2
:1024A000226B236811880232D9602263E28E013ADE
:1024B00092B2E286E28E002AB4D02B0000220221E2
:1024C0002000FFF7B9FE0028EAD00320A6E7E08E3F
:1024D0000128E1D1D8E7E08E012800D084E77BE72E
:1024E00002209BE7FFDFFFFF70B582B004006D465E
:1024F0000020E8805130255C012D04D0255C4F3848
:10250000222D00D07BE00120002978D0002A76D04F
:10251000002B74D05025665D012E00D1F6E0605589
:102520005030255C012D01D13135255400206065E6
:10253000A064E0648020A263A26AE387A387A386E5
:10254000E386216323688001824206D11868AC4D7E
:102550002840186018681043186040201D68284201
:1025600002D11D68284318608025E66860682D0147
:10257000AE4252D0002847D082256D00A84240D0FC
:10258000E18E002900D193E0E38E002B00D102E11F
:1025900080258026AD01760128E0236B5A1C22633A
:1025A0001B782268D360E38E013B9BB2E386E38E07
:1025B000002B05D1A36AAB4202D1136833431360E9
:1025C000069B002201212000FFF736FE002815D1CE
:1025D0002368DA68A36B591CA1631A70E38F013B6F
:1025E0009BB2E387E38E002B00D1D3E0069B002251
:1025F00002212000FFF720FE0028CED0032002B0E9
:1026000070BDE58E012DBBD14D1C25630978D960C5
:10261000E18E013989B2E186B2E7002800D077E087
:102620000D880231DD602163E18E013989B2E186D6
:10263000E18E002900D18AE0E38E002B00D1D4E0A6
:1026400080258026AD01760128E0236B2268198859
:102650000233D1602363E38E013B9BB2E386E38EBA
:10266000002B05D1A36AAB4202D113683343136038
:10267000069B002201212000FFF7DEFD0028BDD1CE
:102680002368DA68A36B1A800233A363E38F013BEC
:102690009BB2E387E38E002B00D1A5E0069B0022CE
:1026A00002212000FFF7C8FD0028CED00320A6E7B6
:1026B000802189018A4234D0069B0022012120001A
:1026C000FFF7BAFD002800D098E72368A26BDB680B
:1026D0001370E38F013B9BB2E3878023A26A9B01C7
:1026E0009A4224D0069B012280212000FFF7A4FDFE
:1026F000002849D151230122E2548022A36A920189
:1027000093425ED050230022E25478E7022076E71D
:1027100082256D00A8428BD1E58E012D00D087E780
:102720007EE78022196852010A431A60C4E7069BBB
:10273000002201212000FFF77FFD002859D16A46C1
:102740002368DB689BB2D3806B46DB88CAE78021B5
:1027500089018A4204D18022196852010A431A6011
:10276000069B002201212000FFF766FD002800D013
:1027700044E72368DA68A36B1A800233A363E38F0C
:10278000013B9BB2E387A8E72022636D032013433C
:10279000636534E7606800289FD1069B0022012111
:1027A0002000FFF749FD002800D027E72368DA68FA
:1027B000A36B591CA1631A70E38F013B9BB2E387A3
:1027C0008BE722689168C9069CD50225616D294373
:1027D000616511680A4D2940116011680B4313604F
:1027E0005023E05401200AE76068002800D074E715
:1027F000B6E70222636D032013436365FFE6C0461C
:10280000FFDFFFFFF0B54746CE4680B585B0040038
:102810001E0000206B46D88151239846E35C0225B8
:10282000DBB2012B5AD100295ED0013D002A55D0E0
:102830004F35675D012F00D17FE063554546213359
:10284000635580236065A064E287E0642063A0860E
:10285000E086A068A163A2871B02984204D1256884
:10286000774F2B683B402B608025A36AAD01AB42BC
:102870000AD12568734FA9462D683D402F004D466B
:102880002F602F681F432F60822567686D00AF425D
:1028900047D0402122681068014202D110680143EC
:1028A0001160E168002921D0E18F01290DD847E0AE
:1028B0002268A36BD16819800233A363E38F013BC5
:1028C0009BB2E387E38F012B39D93300002201212A
:1028D0002000FFF7B1FC0028EAD00325280005B04E
:1028E0000CBC90469946F0BD0125F7E7E28F012A1E
:1028F0000DD850E02368DA68A36B591CA1631A70E5
:10290000E38F013B9BB2E387E38F012B42D9330076
:10291000002201212000FFF78FFC0028EAD00325C8
:10292000DCE70028B5D150230096E05413002000C6
:102930000A00FFF7D9FD0500D0E70225CEE7A36A1C
:10294000802189018B422BD03300002201212000FD
:10295000FFF772FC051EC0D12268E168A36BD26844
:10296000002923D1591CA1631A708022E38F9201A0
:10297000013B9BB2E387A36A93421BD0822261682A
:10298000520091422BD051230122E25450230022C5
:10299000E254A3E7A36A802292019342D4D1226831
:1029A000802311685B010B431360CDE71A8002336B
:1029B000A363DAE73300002201212000FFF73CFC8B
:1029C000002836D16A4623686168DB689BB2D381F0
:1029D0006B468222DB895200A36A914208D1802192
:1029E000A26809028A421ED08021C9008A421AD0F8
:1029F00051220121A154802292019342C6D1226822
:102A00009168C906C2D50220616D01250143616547
:102A100011680C480140116011680B43136050238A
:102A20000022E2545AE7402021680A6882430A6083
:102A3000DEE70222636D0325134363654EE7C0465C
:102A4000FFBFFFFFFFDFFFFF80220368D205904238
:102A500005D00B4A904202D00A4A904207D1702218
:102A600093434A681343084A1340CA6813430360F8
:102A70008B68C3620B688362012343617047C04661
:102A80000008014000140140FFFCFFFF70B5041E68
:102A900014D03523C35CDBB2002B0AD002233525CA
:102AA00020686355211DFFF7CFFF012300206355E8
:102AB00070BD3422835401F001FCEFE70120F7E7F9
:102AC00003680120D9680143D9601A6802431A607B
:102AD0000020704701210368DA688A43DA60186AC7
:102AE000034A104202D11A688A431A6000207047D4
:102AF00011110000342370B5C25C012A67D0012493
:102B00000222C4540133C25403685A4D9A682A40C1
:102B10009A600A68402A00D195E01DD9702A00D138
:102B200081E02ED980246401A24200D176E0802485
:102B3000A401A2421DD19A684F4C4D6814408A6886
:102B4000C9682A4309020A4322439A60802299688D
:102B5000D2010A439A600CE0102A41D02ED9202AD3
:102B600037D0302A05D170219A688A4339390A430F
:102B70009A6035230122C2540022013BC254002036
:102B800070BD502A33D0602AF3D110251C6A4A68E0
:102B9000AC43C9681C629D69384E0903354029431E
:102BA000A0251C6A99617021AC43120122431A626C
:102BB0009A688A4309390A439A60DAE7002AD8D129
:102BC00070219A688A4369390A439A60D1E70220E2
:102BD000D6E770219A688A4349390A439A60C8E760
:102BE00070219A688A4359390A439A60C1E74D684F
:102BF000CA68196A1E6A1201A6431E62F0269C6901
:102C0000B44322430A24A14329439A6119627021E3
:102C10009A688A4319390A439A60AAE707219A6891
:102C20008A439A60A5E79A68134C4D6814408A68F5
:102C3000C9682A4309020A43772122439A609A68A5
:102C40000A439A6095E74D68CA68196A1E6A1201BC
:102C5000A6431E62F0269C69B44322430A24A14382
:102C600029439A61196270219A688A4329390A4373
:102C70009A607EE78800FFFFFF00FFFFFF0FFFFF66
:102C80007047C0467047C0467047C0467047C04650
:102C90000222036810B5196904000A4202D0D968FB
:102CA0000A4254D1042219690A4202D0D9680A4260
:102CB0003AD1082219690A4202D0D9680A4225D1BC
:102CC000102219690A4202D0D9680A420ED10122A3
:102CD00019690A4202D0D9680A424ED140221969C4
:102CE0000A4202D0D9680A4241D110BD213A1A6184
:102CF00019322275DA69C0239B0020001A4243D0A2
:102D0000FFF7C0FF002323752368E0E7113A1A613B
:102D1000DB690D32227520009B0741D0FFF7B2FF1F
:102D2000002323752368CBE7093A1A61073222751D
:102D30009A69C0239B0020001A422ED1FFF7A0FF02
:102D40002000FFF7A1FF002323752368B1E7053AB0
:102D50001A619B69043202759B071BD1FFF790FF34
:102D60002000FFF791FF0023237523689AE7813A3B
:102D70001A612000FFF78AFFB7E7033A1A612000C3
:102D800001F0AAF82368A9E7FFF77AFF2000FFF710
:102D90007BFFB7E7FFF776FFE5E7FFF773FFD2E7C3
:102DA000FFF76EFF2000FFF76FFFB9E770B534241F
:102DB000035D012B19D03525022370264355036886
:102DC0005A68B2435A605A680E684968324380268E
:102DD0005A609A68B2439A609A680A439A600123DB
:102DE000435500230355002070BD0220FCE7C04678
:102DF00003006A2070B51C5C6838202C2DD1002996
:102E00002CD00138002A28D080259C686D01AC4266
:102E100026D068255E5D012E4DD058555965582144
:102E20005A5202315A52002C2CD11A69002A3ED132
:102E30005C22FF21995200226A212220DA6658542E
:102E400002395A541B6867399A6800200A439A600D
:102E50009022196852000A431A6070BD0120FCE7F5
:102E60001C69002C19D10142F7D16820185C012897
:102E700021D0596558215A5202315A525C220F49C9
:102E80009952D8E7802252059442D4D11A69002A77
:102E90000DD05C223F219952CDE76820185C0128B3
:102EA00009D0596558215A5202315A52C0E75C2262
:102EB0007F219952BFE70220CFE7C046FF01000003
:102EC0007047C0466A2370B5C25C0368222A16D1D7
:102ED000802485683A32596A825A436D6401A5425A
:102EE00013D05C1C0A4044651A705A22835A00248D
:102EF000013B9BB28352002B0FD0200070BD0821F4
:102F00009A6902240A439A61F7E70469002CE8D120
:102F10000A401A8002334365E7E7036807491A68E5
:102F20000A401A609A682331FF318A439A606A2303
:102F30002022C25400F050FEDFE7C046DFFEFFFF54
:102F40007047C046036870B5DA6904001968100755
:102F500016D12020104261D19D688020400302429A
:102F600002D06D0200D59CE08020104202D00842C1
:102F700000D077E04020104201D0084268D170BDF7
:102F800001209D6828404FD00125154205D0CE056F
:102F900003D51D62E66E3543E566022515424CD029
:102FA000002806D004261D62E56E3543E56616420C
:102FB00047D1150703D58D066DD400286BD1E06E7F
:102FC0000028DCD02020104201D0084277D1E26EE8
:102FD000120703D440259A68154075D01A684649EF
:102FE0000A401A609A682331FF318A439A606A2244
:102FF0001F31A1549A68203111425CD09A68606EEA
:103000008A439A60002856D03C4B8363FEF748FA07
:103010000028B4D0606E836B9847B0E708429BD01D
:103020002000FFF74FFFAAE790267600314200D13B
:1030300093E701251542B0D0A9E75507B9D5002877
:10304000B7D0042502261D62E56E3543E566B0E77C
:103050001A6882431A60692320222000E254FFF795
:103060002FFF8CE76922A25C212A00D087E731324A
:10307000A25A002A2DD08021A068E26C4901884222
:103080002FD0511CE16412789A625222A35A013B5C
:103090009BB2A35273E708251D62E06E2843E066E9
:1030A0008DE7186269222023A3540132A354200023
:1030B00000F05CFB63E72000FFF742FF5FE72000C2
:1030C000FFF700FF236882E72000FFF739FFE5667E
:1030D00055E740211A6882431A601A680A431A6049
:1030E0004DE721690029CCD111880232C905C90DEB
:1030F0009962E264C9E7C046DFFEFFFF01310008C4
:1031000000235A2210B5806A8352083A8352FFF78F
:1031100017FF10BD7047C046036817491A6810B5FD
:103120000A401A609A682331FF318A439A609A688C
:103130003F3104000A4010D09A68406E8A439A607A
:10314000002815D00D4B8363FEF7AAF9002802D0A2
:10315000606E836B9847002010BD5A2142520F22A7
:103160001A626A231132E2542000FFF7D3FFF2E71C
:103170005A22A052F3E7C046DFFEFFFF813100086C
:103180005A230022806A10B5C25203680F321A62B5
:103190006A231132C254FFF7BDFF10BDF8B50169B3
:1031A000836805680B4341692A680B43C1699E4ED9
:1031B0000B439E4904000A4013432B606B689C4AF2
:1031C0001340C26813436B60AA688369B54216D086
:1031D000016A0B4397490A401343AB60964B9D42EB
:1031E00000D17CE00220FEF787FF2368B34204D0C1
:1031F0008022E169120291424AD00120F8BD8D4936
:103200000A40C02113438022AB608C4B0901DB6C68
:10321000D2000B40934200D190E01BD980221201D2
:10322000934200D198E08B4200D0F2E00220FEF7FA
:1032300063FF2768AF4200D1CEE08023E2691B0222
:103240009A4200D09BE0802361685B0248089C465C
:10325000604411E0002B00D0DBE00220FEF74CFFC1
:103260002768AF421AD08023E2691B029A4262D1DA
:10327000616840004B08C018FCF746FF0F213B0077
:103280000207520F8843024392B20020DA60B5E78A
:1032900000220120DA60B1E7002DAED1FEF734FE46
:1032A00003000020002BA9D06268510089189942C0
:1032B000A3D811039942A0D300275608190E18026B
:1032C000801979410023FCF7ABFF5D4BC2185D4BC1
:1032D0009A4200D991E72368D86000208EE7574BC7
:1032E0000220DA6C0C231340574AD55CFEF704FF2A
:1032F00027683B00B74272D08022E16912029142F6
:1033000005D1082DC4D8514AAD0052599746082D11
:1033100000D972E74E4BAD005B599F46FEF704FEA5
:10332000616824684B081818FCF7EEFE0004000CD6
:10333000E060002062E7FEF7E7FDF1E70220FEF71C
:10334000DBFE2368AB4260D08023E2691B029A4215
:103350003FD0FEF7B7FCE3E70220FEF7CDFE27687B
:10336000AF4248D08023E2691B029A4229D0334BF6
:1033700061681B684808DB060ED5364B03E08023E6
:1033800061681B0248089C466044FCF7BDFE0004CF
:10339000000CF860002031E72F4BF4E7FEF7C4FD86
:1033A000636840005B086168C018FCF7ADFE0F2140
:1033B0000207520F88430243236892B20020DA606A
:1033C0001CE71E4B61681B684808DB062AD5234BA7
:1033D0003DE7FEF777FCE3E780231B0264E7022D5D
:1033E00009D000D858E7042D0FD080231B02082DE8
:1033F00000D159E701E7184A104B94461B6818485A
:10340000DB06DB17034063444EE7FEF75BFC03007B
:1034100047E70220FEF770FE2368034A934200D07C
:10342000E6E6EAE60F4B12E700480040F369FFEFDB
:10343000FFCFFFFFFFF4FFFF0044004000100240F9
:1034400000FDFFFFFFFC0F001C4D0008D44C0008DE
:10345000F84C000800093D000024F40000127A0036
:1034600000E548FF0048E801436A30B5DA0706D5B1
:103470000168284C4A682240846A22434A609A07BD
:1034800006D50168244C4A682240C46A22434A6037
:103490005A0706D50168214C4A682240046B224332
:1034A0004A601A0706D501681D4C4A682240446BE1
:1034B00022434A60DA0606D501681A4C8A6822401F
:1034C000846B22438A609A0606D50168164C8A6886
:1034D0002240C46B22438A605A060AD50168134D04
:1034E0004A68046C2A4022434A6080225203944274
:1034F00009D01B0606D502680D4953680B40816C44
:103500000B43536030BD4A680A4C2240446C22434E
:103510004A60EEE7FFFFFDFFFFFFFEFFFFFFFBFF3F
:10352000FF7FFFFFFFEFFFFFFFDFFFFFFFFFEFFF6B
:10353000FFFFF7FFFFFF9FFFF0B5C64607000C0037
:103540001600984600B5069D3A6801E06B1C0AD14A
:10355000D36923401B1B59424B41B342F6D0002094
:1035600004BC9046F0BD002D06D0FDF71FFF43467A
:10357000C01AA842E8D93A681368094903200B40E9
:1035800013609368A331FF318B439360202369223A
:10359000BB540132BB5400224833FA54E0E7C04622
:1035A0005FFEFFFFF0B54746CE4680B51F0069239A
:1035B000C35C040083B00D0016000220202B47D10D
:1035C00000294AD00138002A42D08023A2685B013A
:1035D0009A4244D06823E25C012A51D00122E2548D
:1035E00000232032E3666933E254FDF7DFFE502307
:1035F000E6520233E65280235B018046522699460A
:10360000A35B002B16D0A35B0097013B9BB2A35397
:103610000022434680212000FFF78EFF002824D19E
:10362000A26823684A4522D02A7801359A62A35BB2
:10363000002BE8D100974346002240212000FFF7ED
:103640007BFF002811D169232022E254013BE05482
:1036500003B00CBC90469946F0BD0120F8E7236901
:10366000002BB7D10142B5D0F2E70320F0E7226981
:10367000002AD9D12A880235D205D20D9A62BFE735
:103680000220E5E7002330B50400C36683B0FDF7F0
:103690008DFE236805001A6812070DD41B685B07AE
:1036A00019D420236922A3540132A35400220020FC
:1036B0004833E25403B030BD80210D4B002200930B
:1036C000890303002000FFF737FF00280ED123688D
:1036D0001B685B07E5D58021054B00220093C903D9
:1036E0002B002000FFF728FF0028DAD00320E1E7B5
:1036F000FFFFFF0110B5041E25D06923C35CDBB2B8
:10370000002B2BD0692324220121E2542268136864
:103710008B431360636A002B17D12000FFF73EFD37
:10372000012810D0236810495A6820000A402A2135
:103730005A609A688A439A601A6829390A431A605B
:10374000FFF7A0FF00E0012010BD2000FFF78CFE76
:103750002000FFF723FD0128E4D1F4E76822835419
:1037600000F0C4FDCEE7C046FFB7FFFF7047C0467C
:1037700030B583B000236A4601AD1370114C443359
:103780002B708021A02000228900C005FDF7C6FF14
:103790006423012229002000FEF7D8FD64230122C2
:1037A00069462000FFF72EF88021A0200122890021
:1037B000C005FDF7B3FF6B461B78FF2BE1D103B0CB
:1037C00030BDC04698010020F8B58026A02507002E
:1037D0000C00B600ED05FFF7CBFF310028000022FA
:1037E000FDF79CFF3900A2B264230448FEF7AEFD4A
:1037F000310028000122FDF791FFF8BD980100205B
:10380000F0B585B005000F00160000210C2201A8BC
:103810001C0000F03EFE6A46112329001370577009
:103820009470D67001A8220000F02AFEFFF7A0FFD6
:10383000211DC9B26846FFF7C7FF05B0F0BDC046FD
:10384000F0B583B000236A4601AD137044332B708A
:1038500006000F000023194CFF2B16D08021A0205A
:1038600000228900C005FDF759FF642301222900C9
:103870002000FEF76BFD0123012269462000FEF7C0
:10388000C1FF6B461B78FF2B0ED1B2B26423390007
:103890002000FEF7B7FF8021A02001228900C0058B
:1038A000FDF73CFF03B0F0BD8021A020012289007C
:1038B000C005FDF733FF6B461B78CDE7980100206C
:1038C000F0B5CE46474680B583B001AB984680261A
:1038D000A0257723424604008946B600ED05137003
:1038E000310028000022FDF719FF0B4F41466423E9
:1038F00001223800FEF72AFDA2B2642349463800AF
:10390000FEF780FF012231002800FDF707FF03B01A
:103910000CBC90469946F0BD9801002010B5094CAA
:10392000012202212000FDF7F9FE0120FDF744FDF0
:10393000002202212000FDF7F1FE0520FDF73CFDED
:1039400010BDC04600040050002330B583B001AC68
:1039500023806B46DD1C33232B70FFF709FF012109
:103960002800FFF731FF21000220FFF769FF0D2338
:1039700022781340052B06D09A2302215B002000F9
:103980002380FFF721FF03B030BDC046F0B5CE461F
:103990004746072380B583B06B4498468026A02510
:1039A0006623424681460C00B600ED0513703100D7
:1039B00028000022FDF7B2FE0B4F4146642301228E
:1039C0003800FEF7C3FCA2B2642349463800FEF774
:1039D000BDFC012231002800FDF7A0FE03B00CBCA5
:1039E00090469946F0BDC0469801002010B582B0BF
:1039F0006C4631232370002309016070A170E370CD
:103A000022716371A371FFF7B3FE07216846FFF7C8
:103A1000DBFE02B010BDC04670B582B000246B461C
:103A20006A469C700B4B06000D001380684602210D
:103A3000FFF7CAFE6A463223137008235480082118
:103A400068465670157153719371D371FFF7BCFEC0
:103A500002B070BD150300000023F0B50D00070093
:103A6000160083B001ACA3700B4B20000221238011
:103A7000FFF7AAFE094B200004210193FFF7A4FEE3
:103A800029003800FFF782FF2A0003213000FFF7EA
:103A9000ADFF03B0F0BDC04615030000200000FFDD
:103AA00030B583B0FDF7ACFA0022164BFCF7B8FC3A
:103AB000FCF7D6FB14490500FCF726FB0138C4B21D
:103AC0001148631C58434B21281AFCF71DFB0F4A71
:103AD000410B0023C004FCF7A3FB80220023120348
:103AE00012184B41110001A80B0C43700B0A837094
:103AF000C1700423002240210470FFF781FE03B04F
:103B000030BDC0460000EE3FE0707200A0860100AC
:103B100010B582B06B460400D81D0123012103704B
:103B2000FFF752FEFFF724FE21000820FFF788FE72
:103B300002B010BD802370B55B0082B0984201D006
:103B400002B070BD1D4B1B78002BF9D0202301ACB7
:103B5000012120002370FFF737FE194D08202900AE
:103B6000FFF76EFEAB78DB0606D420230121200090
:103B70002370FFF729FEE3E7124E61203100FFF7C3
:103B80009FFE0023A370104B200002212380FFF72B
:103B90001BFE0E4D642309220D492800FFF702FD8C
:103BA0003100642361222800FFF7FCFC6423022219
:103BB00008492800FFF7F6FCD7E7C0468800002038
:103BC000AC000020B40000201503000028020020F3
:103BD000144F00086C4F0008F0B5B54C89B023783D
:103BE000412B14D0B34EB44D6B7801220133DBB2BC
:103BF0006B70697830006118FFF7FAF880230022B3
:103C0000DB055A62AD48FEF75BFF09B0F0BD637893
:103C1000542BE7D1A3782B2BE4D1E378462B71D03A
:103C2000E378502BDED12379572BDBD16379522BEC
:103C3000D8D1A3793F2B00D1EEE0A3793D2BD1D190
:103C4000237A0D2B05D0637A0D2B02D0A37A0D2B8E
:103C5000C8D10723E15CDAB22F2902D9E15C392906
:103C600006D9E15C0D2903D0E15C0A2900D00BE103
:103C7000E15C0D2900D102E101330F2BEAD18E4D19
:103C80002B7A002B00D1F2E02B7A013B5BB2002BA8
:103C90000FDB0121D81D225CEE68303A4A439219AD
:103CA000EA60013B8A0051185BB2490001385A1C96
:103CB000F1D16A46EB68D01DDBB22B742B7C22213C
:103CC000037001231A00FFF79BFDEA687C4902A8F4
:103CD00000F0E8FB02A8FDF735FB764E82B26423C4
:103CE00002A93000FFF75EFC00276E223900200099
:103CF000EF6000F0CEFB0122210030006F70FFF773
:103D000077F871E72379522B8AD16379412B49D017
:103D10006379452B00D065E7A379512B00D061E78B
:103D2000E3793F2B00D196E0E3793D2B00D059E7B2
:103D3000637C0D2B00D055E7A37C0A2B00D051E704
:103D4000082307E0E15C0D2900D1A3E00133142B27
:103D500000D19DE0E15CDAB22F2902D9E15C39297A
:103D6000F0D9E15C0D29EDD0E15C0A29EAD000230D
:103D7000514D2B722B7A092B79D12B7A0121013BE2
:103D80005BB218000A260830002B00DA88E0225CBB
:103D9000EF68303A4A43013BD219EA6071435BB2A3
:103DA0000138F1E7A3794D2BB2D1E379452BAFD19F
:103DB0002533E35C0D2BABD15E33E35C0A2BA7D13B
:103DC000A02000228021C005FDF7A8FC01223D486B
:103DD0001100FDF7A3FC21003B4D093161222800B1
:103DE00000F04EFB280000226121FFF735FE314E26
:103DF0006423042235493000FFF7D4FB6E220021F2
:103E0000200000F046FB2C4D002301222100300051
:103E10006B70FEF7EDFFE7E6E3790D2B00D0E1E6EE
:103E2000237A0A2B00D0DDE6234D25492A7CD2B225
:103E300002A800F037FB02A8FDF784FA1D4E82B2FB
:103E400002A964233000FFF7ADFB6E2200212000A1
:103E500000F01FFBD8E7237A0D2B00D064E7637ACC
:103E60000A2B00D060E7144D19496A68E0E7114E4B
:103E70006423072217493000FFF794FB34E7073A21
:103E80000D4DD2B22A72FBE600230B4D2B72F7E6E2
:103E9000094D6FE71300084D083BDBB22B7269E751
:103EA000EB686B606868FFF7FBFDEA6808490EE79E
:103EB000280100202802002088000020F0010020B6
:103EC0003C4F000800040050B4000020204F0008C0
:103ED000284F0008344F000870B5104B1C78E4B22E
:103EE000002C02D000221A7070BD0D4E6E220021EF
:103EF000300000F0CEFA0B4D0B4B28005C70FFF742
:103F00000BF9012231002800FEF772FF0748FEF787
:103F1000E1FD8023DB055C62E6E7C046000000208F
:103F2000280100202802002088000020F001002045
:103F30002449254A0B6810B51A4080231B011343FE
:103F40000B60012398B00B93A023DB020C9380231A
:103F50005B021593A0235B03169380230224DB03EB
:103F60000BA814941793FDF72BFC002800D0FEE754
:103F70000F230290009303900C3B049001216846AC
:103F80000193FDF7F3FE002800D0FEE7079005A897
:103F90000594FDF7D9FF041E00D0FEE7FDF7AEFF44
:103FA000FA218900FCF7B0F8FDF74AFA0420FDF782
:103FB00063FA0120220021004042FDF70BFA18B0FD
:103FC00010BDC04600700040FFE7FFFFF0B5D646C9
:103FD0004F4646460125C0B5814F8AB06E2200216A
:103FE000380000F056FAFDF7C9F9FFF7A1FF7D4B45
:103FF000A026DA6AA0202A43DA62DA6AB6002A40EA
:104000000192019A0222D96AC0051143D962DB6A82
:1040100031001A4002920122029BFDF77FFB002231
:1040200001217148FDF77AFB012202216E48FDF75C
:1040300075FBA0200596002605AC2100C005656033
:10404000E560A660FDF786FA032321006648059324
:104050006560E560A660FDF77DFA8023A0205B0027
:104060000593624B2100C0056360A560FDF772FAFD
:10407000002200210720FDF7ADF90720FDF7D6F952
:1040800080235B4DDB052B605A4B28006B60F423CB
:10409000FF33AE60EB602E61FEF7F8FC002800D025
:1040A000FEE7802321005B0128000593FEF722FD37
:1040B000002800D0FEE72023049003A928000393E2
:1040C000FEF774FE002800D0FEE74B4B4B4A986089
:1040D0001A60822252005A60FC329A61D93AFF3A41
:1040E000D86018615861DA61186258629862213AA2
:1040F0001800DA62FEF7F0F8002800D0FEE7404D25
:10410000404BA8602B60E1239B026B600C23E860AE
:104110002861A861E8612862686228006B61FFF786
:10412000E9FA061E00D0FEE7A02001228021C0058A
:10413000FDF7F4FA320001212B48FDF7EFFAFA20DF
:104140004000FDF739F9FFF7E9FB2000FFF7E0FC3D
:104150006378442B02D1A378632B06D06423112209
:1041600029492800FFF71EFAFEE7284B9A4611233B
:1041700099467233FF33984653464A4699192000B0
:1041800000F07EF9FFF7F4FA15236B44180021784C
:10419000FFF71AFB23780133F618B6B24645EBD980
:1041A00020230126012120002370FFF70DFBFFF7DC
:1041B000CBFB174C174B63606068FFF771FC612104
:1041C0000020FFF729FC11221349642328002670E0
:1041D000FFF7E8F9320039002800FEF709FEFEE794
:1041E00028010020001002400004005000002110AF
:1041F000F0010020FF7C0000980100200030014009
:1042000028020020004400405C4F00082C4D0008AC
:1042100088000020D861331A484F000801210E4B56
:1042200010B55A6B05200A435A638022996B5205D8
:104230000A439A63002100224042FDF7CBF8022096
:10424000002200214042FDF7C5F801200022002194
:104250004042FDF7BFF810BD0010024070B5144B8E
:10426000026886B09A4201D006B070BD8023114A20
:104270005B01516BA0200B435363C0235B010224FD
:10428000019303260123002501A9C005039302948D
:1042900004960595FDF75EF9082301A906480193E8
:1042A0000294039404960595FDF754F9DCE7C046A3
:1042B00000300140001002400004005080230268DA
:1042C00010B5DB059A4200D010BD0121064A0F202F
:1042D000936B0B43936300210022FDF77BF80F20C3
:1042E000FDF7A4F8F0E7C0460010024000B5114BFE
:1042F000026887B09A4201D007B000BD80230E4A01
:104300009B02916B0D480B439363C0230193BE3B0B
:1043100002930322002301A9039304920593FDF75E
:1043200019F9002200211C20FDF754F81C20FDF78C
:104330007DF8E1E700440040001002400004005016
:104340007047C046FEE7C0467047C0467047C0464B
:1043500010B5FDF723F8FDF79FF810BD802010B5CC
:104360004000FDF7E1F910BD10B50248FEF790FCE2
:1043700010BDC046F001002010B50248FEF7E2FD76
:1043800010BDC046280200208022104B5200196840
:104390000A431A60DA680E490A40DA601A680D4961
:1043A0000A4001211A609A688A439A601A680A4989
:1043B0000A401A60DA6809490A40DA6000221A6184
:1043C0008022074B12059A607047C04600100240D9
:1043D0000C40FF88F6FFF6FEFFFFFBFFFFFF02FF2A
:1043E00000ED00E00D488546002103E00C4B5B58D2
:1043F000435004310B480C4B42189A42F6D30B4AF7
:1044000002E0002313600432094B9A42F9D3FFF70C
:10441000BBFF00F011F8FFF7D9FDFEE700200020F8
:10442000B44F0008000000206C0000206C00002049
:10443000A8020020FEE7000070B500260C4D0D4CD0
:10444000641BA410A64209D1002600F037FC0A4DD7
:104450000A4C641BA410A64205D170BDB300EB58F2
:1044600098470136EEE7B300EB5898470136F2E77C
:10447000AC4F0008AC4F0008AC4F0008B04F00082C
:10448000002310B59A4200D110BDCC5CC454013356
:10449000F8E703001218934200D1704719700133F6
:1044A000F9E700000EB400B50B499CB01DAB0290BB
:1044B0000690079104910948094904CB05910068C9
:1044C00002A9019300F070F80023029A13701CB047
:1044D00008BC03B01847C046FFFFFF7F080000205C
:1044E0000802FFFFF0B58E6885B007000C0003924C
:1044F00001939E423CD890238A89DB001A4234D033
:104500000325096923685B1A0293636902985D4376
:10451000EB0F5D19019B6D1001331B18AB4200D9E5
:104520001D00530532D52900380000F019FB061E86
:1045300009D10C233B6040230120A2894042134350
:10454000A38105B0F0BD029A2169FFF799FFA38905
:10455000144A1A4080231343A381029B2661F61854
:1045600026606561019EED1AA560019B9E4200D9FF
:10457000019E32000399206800F095FAA36800209C
:104580009B1BA36023689E192660DAE72A00380087
:1045900000F044FB061EE0D12169380000F096FAD5
:1045A000C7E7C0467FFBFFFFF0B5A1B003901D0039
:1045B0008B890F0016001B0611D50B69002B0ED13D
:1045C000402100F0CDFA38603861002805D10C2375
:1045D000039A0138136021B0F0BD40237B610023B2
:1045E00008AC6361203363761033A37607953500FA
:1045F0002B78002B01D0252B46D1AB1B05930CD07B
:10460000320039000398FFF76DFF431C00D1AEE084
:104610006269059B9446634463612B78002B00D14B
:10462000A5E0012200235242626004A954325218CC
:104630006E1C2360E360A3601370A36531780522CC
:10464000534800F025FA751C00281FD12268D306B4
:1046500004D5532304A95B1820211970130704D52E
:10466000532304A95B182B21197033782A2B16D0F9
:10467000350000210A20E3682A786E1C303A092AA6
:104680004ED9002918D010E00135B1E7404B22681F
:10469000C01A01238340134323602E00CEE7079BFB
:1046A000191D1B680791002B01DB0B9304E05B4293
:1046B000E3600223134323602B782E2B0AD16B78FF
:1046C0002A2B35D1079B02351A1D1B680792002B38
:1046D0002BDB09932F4E29780322300000F0D8F904
:1046E000002806D04023801B8340226801351343F5
:1046F00023602978062228486E1C217600F0C8F92C
:1047000000283CD0254B002B25D10722079B0733DF
:104710009343083307936369049A9B18636166E7C0
:10472000434301219B183500A6E701235B42D0E7F4
:1047300000230A201A000135636029786E1C303985
:10474000092903D9002BC5D00992C3E742430123AD
:1047500052183500F1E707AB00933A00104B2100E7
:10476000039800E000BF0490049B0133D3D1BB89C0
:104770000D985B0600D42EE7012040422BE707ABE3
:1047800000933A00064B2100039800F079F8EAE71D
:10479000704F0008764F00087A4F000800000000B4
:1047A000E5440008F7B5150001938A680B6900908D
:1047B0000C00934200DA130022002B60433212787F
:1047C000002A01D001332B6023689B0602D52B6899
:1047D00002332B60062723681F4027D02300433372
:1047E0001B785A1E93412268920630D42200019908
:1047F00043320098089EB047431C25D0062320680A
:104800002A68E16803400025042B03D18D1AEB438D
:10481000DB171D40A3682269934201DD9B1AED1846
:104820000027BD4220D1002010E00137E3682A684C
:104830009B1ABB42D2DD2200012319320199009854
:10484000089EB047431CF0D101204042FEBD3020FD
:10485000E1184331087021005A1C45310978A2182B
:10486000433202331170C1E7220001231A32019949
:104870000098089EB047431CE6D00137D1E70000FE
:10488000F0B589B004920A00433205930390029276
:104890000A7E0C000E9B6E2A00D186E01FD8632A88
:1048A00033D008D8002A00D18CE0582A4DD02500FA
:1048B00042352A7030E0642A01D0692AF7D119689C
:1048C00025680A1D280629D508681A60002803DA19
:1048D0002D23029A404213706B4E0A274FE0732A31
:1048E00074D008D86F2A1FD0702AE0D1202209681E
:1048F0000A43226003E0752A16D0782AD7D1220015
:10490000782145321170614E22E025001A68423547
:10491000111D196013682B70012365E008681A6087
:104920006906D3D500B2D1E719682568081D18605B
:1049300008682E0605D5544E08276F2A1BD00A2773
:1049400019E06D06F7D580B2F5E745314E4E0A7095
:1049500018682268011D00681960150621D5D30763
:1049600002D520231A4322601027002803D12023D8
:1049700022689A4322602300002243331A7063683E
:10498000A360002B58DB042221689143216000289A
:1049900054D1029D002B5AD02500337842352B701C
:1049A00055E05506DBD580B2D9E71A680D68101DB1
:1049B0004969186013682E0601D5196002E06D067A
:1049C000FBD519800023029D23614FE01A68111D59
:1049D0001960156800216268280000F059F8002865
:1049E00001D0401B6060636823610023029A13704A
:1049F0003CE023692A0004990398059DA847431CBD
:104A00003ED023689B0715D4079BE068984239DAAB
:104A1000180037E022000123193204990398059EFB
:104A2000B047431C2CD00135E368079A9B1AAB4270
:104A3000F0DCE9E70025F7E70028ADD0029D39005A
:104A4000FBF7E8FB735C013D2B700028F7D1082FC2
:104A500009D12368DB0706D563682269934202DC2B
:104A60003023013D2B70029B5B1B2361059B07AA32
:104A700000932100049B0398FFF794FE431CB8D1D8
:104A80000120404209B0F0BD814F0008924F00085C
:104A9000C9B28218904201D10020704703788B423E
:104AA000FBD00130F6E710B5884202D98B18984246
:104AB00003D3002307E08B5C8354013AFBD210BD83
:104AC000CC5CC45401339A42FAD1F8E770B50500C2
:104AD000002910D00C1F2368002B00DAE4182800EE
:104AE00000F0D4F81D4A1368002B05D163601460F0
:104AF000280000F0CCF870BDA34209D921686018E5
:104B00008342F3D118685B6841182160EEE7130017
:104B10005A68002A01D0A242F9D919685818A0424F
:104B20000BD120680918581819608242E0D110682A
:104B30005268411819605A60DAE7A04202D90C2382
:104B40002B60D5E721686018824203D11068526853
:104B50004118216062605C60CAE7C0469C0000208A
:104B6000032370B5CD1C9D43083506000C2D1ED2C5
:104B70000C25A9421DD8300000F088F8254A146899
:104B80002100002919D1244C2368002B03D13000C7
:104B900000F06AF820602900300000F065F8431C3E
:104BA0002BD10C233000336000F071F803E0002DAE
:104BB000DFDA0C233360002070BD0B685B1B19D457
:104BC0000B2B03D90B60CC18256003E04B688C429B
:104BD0000DD11360300000F05AF8200007220B308E
:104BE000231D9043C31AE7D05A42E250E4E76360C2
:104BF0000C00EFE70C004968C3E70323C41C9C4387
:104C0000A042E1D0211A300000F02EF8431CDBD185
:104C1000C7E7C0469C000020A0000020F8B50700B0
:104C20000D001600002905D11100FFF799FF0400BF
:104C30002000F8BD002A03D1FFF748FF3400F7E752
:104C400000F026F82C00B042F2D231003800FFF715
:104C500087FF041EECD029003200FFF711FC290069
:104C60003800FFF733FFE3E7002370B5064C05007B
:104C70000800236000F014F8431C03D12368002BC4
:104C800000D02B6070BDC046A40200207047704762
:104C90000B1F1B68181F002B01DA0B58C018704738
:104CA000044A1368002B00D1034B18181060180039
:104CB0007047C046A4000020A8020020F8B5C046F6
:104CC000F8BC08BC9E467047F8B5C046F8BC08BCA6
:044CD0009E46704745
:104CD400703200089C330008C23300089032000888
:104CE400D233000890320008903200089032000855
:104CF40046320008363300081C3300086E330008BF
:104D0400FA31000852330008FA310008FA31000879
:104D1400FA3100087E33000800101010041010103F
:104D240002101010080000000702010101E8480009
:104D3400081300000000674B000811000400000085
:104D440018301011200C0003000702710005E84818
:104D5400000000051120010C421011200C1C8000E1
:104D6400B0100CE800530624DD000E11200A2800C0
:104D740002C0080012002101710F11200B39121218
:104D8400801A200000280CA4230D112009450300DB
:104D94007D0100FF0609100611200250940A061135
:104DA4002002540307091120055B400404782010F5
:104DB40011210C007E641BBA580BDDCED6E6F6003A
:104DC4001011210C0C030315F03F007E641BBA582C
:104DD4000B0F11210B18DDCED6E6F600030315F0F8
:104DE4003F05112201031D0C114008003709000082
:104DF400033320FE083200000000000000051756AF
:104E040010CAF005171310CAF008110104000710A6
:104E1400000007110203000A000009111005000434
:104E24000A001F3109111105000BB42BB42B10110A
:104E3400120C010030FFFF20320000000061610904
:104E44001112050E61140000800A112006000500ED
:104E5400070AFC80061120020B01DE05112001184F
:104E6400050F11200B1E301000E8004A06E97907EF
:104E7400FF0C1120082A020000128093014A0B1132
:104E84002007391010001A11480E0B11200747E3B0
:104E9400010080060118051120015084051120012C
:104EA4005D070811400400350F933300030406081E
:104EB4000C1018203000000000000000000000006A
:104EC40001020304060708090000000001020304AC
:104ED400D8050008DA040008DA040008F807000816
:104EE400D4040008D4040008E0070008F807000808
:104EF400D4040008E0070008D4040008F8070008F8
:104F0400EE070008EE070008EE070008FC0700089B
:104F140041542B4652414D453D0000004F4B0D0A74
:104F240000000000465245513D256C750D0A0000F5
:104F34004552524F520D0A005057523D25750D0AE5
:104F4400000000004D31375F414E4C20494E49541A
:104F5400204F4B0D0A0000004D31375F414E4C206D
:104F6400494E4954204552520D0A0000232D302B3E
:104F74002000686C4C006566674546470030313256
:104F840033343536373839414243444546003031AD
:104F9400323334353637383961626364656600000C
:084FA400F8B2FF7F01000000DC
:044FAC00E900000810
:044FB000C100000834
:104FB4000100000080841E000C000020000000009E
:104FC40000000000000000000000000000000000DD
:104FD40000000000000000000000000000000000CD
:104FE40000000000000000000000000000000000BD
:104FF40000000000000000000000000000000000AD
:10500400000000000000000000000000000000009C
:0C50140000000000000000000000000090
:04000005080043E5C7
:00000001FF
