:020000040800F2
:100000000008002055270008D1260008D526000842
:1000100000000000000000000000000000000000E0
:10002000000000000000000000000000D9260008C9
:100030000000000000000000DD260008E1260008A6
:10004000D5270008D5270008D5270008D5270008A0
:10005000D5270008D5270008D5270008ED26000879
:1000600000000000D5270008D5270008D527000884
:10007000D5270008D527000800000000D527000874
:100080000000000000000000000000000000000070
:10009000D52700080000000000000000D527000858
:1000A00000000000D527000800000000000000004C
:1000B000D5270008D5270008000000000000000038
:1000C00010B5064C2378002B07D1054B002B02D02E
:1000D000044800E000BF0123237010BD040000208D
:1000E0000000000044280008044B10B5002B03D08A
:1000F0000349044800E000BF10BDC04600000000F6
:100100000800002044280008002243088B4274D3D2
:1001100003098B425FD3030A8B4244D3030B8B4208
:1001200028D3030C8B420DD3FF22090212BA030C11
:100130008B4202D31212090265D0030B8B4219D3F2
:1001400000E0090AC30B8B4201D3CB03C01A524112
:10015000830B8B4201D38B03C01A5241430B8B425A
:1001600001D34B03C01A5241030B8B4201D30B0343
:10017000C01A5241C30A8B4201D3CB02C01A52416A
:10018000830A8B4201D38B02C01A5241430A8B422D
:1001900001D34B02C01A5241030A8B4201D30B0216
:1001A000C01A5241CDD2C3098B4201D3CB01C01A30
:1001B000524183098B4201D38B01C01A524143093A
:1001C0008B4201D34B01C01A524103098B4201D328
:1001D0000B01C01A5241C3088B4201D3CB00C01A95
:1001E000524183088B4201D38B00C01A524143080D
:1001F0008B4201D34B00C01A5241411A00D2014632
:10020000524110467047FFE701B5002000F006F8A4
:1002100002BDC0460029F7D076E770477047C04658
:10022000002B11D1002A0FD1002900D1002802D0C3
:100230000021C943081C07B4024802A140180290DB
:1002400003BDC046D9FFFFFF03B4684601B502985D
:1002500000F006F8019B9E4602B00CBC7047C046F9
:10026000F0B54F464646D646C0B5040082B00D00F4
:10027000914698468B422FD82CD04146484600F0F4
:10028000CFF829000600200000F0CAF8331A9C4677
:10029000203B9A4600D576E04B46524693401F00DD
:1002A0004B46624693401E00AF4228D825D05346A5
:1002B000A41BBD41002B00DA7BE00022002300924A
:1002C00001930123524693400193012362469340D8
:1002D000009318E08242D0D90022002300920193BB
:1002E0000A9B002B01D01C605D600098019902B050
:1002F0001CBC90469946A246F0BDA342D7D9002225
:100300000023009201936346002BE9D0FB07984637
:10031000414672080A437B0866460EE0AB4201D1B3
:10032000A2420CD8A41A9D41012024196D4100213C
:10033000013E24184D41002E06D0AB42EED9013EBD
:1003400024196D41002EF8D10098019953460019E7
:100350006941002B23DB2B005246D3402A00644620
:10036000E2401C0053461500002B2DDB26005746AB
:10037000BE40330026006746BE403200801A9941D5
:1003800000900191ACE7624620239B1A4A46DA406E
:100390006146130042468A4017001F4380E76246C9
:1003A00020239B1A2A0066469A402300F3401343F9
:1003B000D4E76246202300219B1A0022009101927B
:1003C0000122DA40019280E72023624626009B1A30
:1003D000DE402F00B0466646B74046463B003343FA
:1003E000C8E7C0461C2101231B04984201D3000C1E
:1003F00010391B0A984201D3000A08391B09984298
:1004000001D30009043902A2105C40187047C046AD
:1004100004030202010101010000000000000000CD
:1004200010B5002903D1FFF7DDFF203002E0081CE2
:10043000FFF7D8FF10BDC046FA21084B10B5890060
:1004400004001868FFF760FE00F06CF8012000223D
:100450002100404200F030F8002010BD00000020D4
:100460004021064A10B5136800200B431360FFF7C4
:10047000E3FF02F0BBF8002010BDC04600200240A0
:10048000024A1368013313607047C04624000020FD
:10049000014B18687047C0462400002010B582B098
:1004A0000190FFF7F5FF0400FFF7F2FF019B001B2F
:1004B0009842F9D302B010BDFF22032330B51400D7
:1004C000C5B22B40DB009C4089010A40E4439A40BE
:1004D00000280BDB0C4B80089C46C0238000604446
:1004E0009B00C1580C402243C25030BD0F23074926
:1004F0002B408C46083B9B089B006344D9690C4009
:100500002243DA61F1E7C04600E100E000ED00E0DF
:100510001F2318401E3B8340014A13607047C046AA
:1005200000E100E00A4A431E012093420ED8C02198
:10053000084A09485360036A09061B021B0A0B4359
:100540000362002300209360073313607047C046A6
:10055000FFFFFF0010E000E000ED00E0054A136837
:10056000042803D004218B431360704718431060A4
:10057000FBE7C04610E000E07047C04610B5FFF74B
:10058000FBFF10BDF0B5DE4657464E464546E0B58A
:100590000B6883B09C46002B79D001239A46614BAF
:1005A0000022984663460191009354469440009D72
:1005B000254068D0019B102759680B00BB43994622
:1005C000022B6BD053009C4603236646B3400126A2
:1005D0007642B346D9444E46DB43012E00D87DE037
:1005E000046867461C40A14603240C40BC404F46AB
:1005F0003C4367460460C4682340019CA468BC4037
:100600002343C36080235B0519423CD05646032731
:10061000454C1740636B33436363444CBE00A446B0
:100620000F2793089B006344B740B446A0269C68FC
:10063000F605BC43B0420BD03D4EB0426CD03D4EAF
:10064000B1460226484500D006266746BE403443E0
:100650009C604346EC431B68CE035BD42340464674
:10066000336073688E0353D4234046467360B36887
:10067000CE024BD423404646B360F368890243D48C
:1006800023404146CB60009B0132D3408DD103B063
:100690003CBC90469946A246AB46F0BDD3089B00B1
:1006A000C3181E6AB146072637001740BE000F2741
:1006B000B740BB46B4464F465E46B743019EB94677
:1006C00037696646B740BC464F46664637431F62A9
:1006D00053009C4603236646B340DB438768019E74
:1006E0001F40BB46F7686646B740B9465F464E4670
:1006F00037438760466837005646A7430C093440A5
:1007000094403C4344606BE72B43BAE72B43B2E78A
:100710002B43AAE72B43A2E756466746BE40344325
:1007200096E7C0460004014000100240000001406E
:100730000004005000080050002A01D18162704777
:100740008161FCE7044B10B55A69104202D0586130
:1007500001F0B0FD10BDC04600040140F0211A4B6D
:1007600010B5DA68114214D18022996B52051142FA
:100770001AD1996B154C0A43C0219A63144A490156
:1007800012680A40996B21409963C0235B019A4229
:1007900013D0002001230F490A689A4302430A60DC
:1007A0000A681340584010BD094B1A68C0235B010A
:1007B0001A40C0235B019A42EBD1074B9C46604430
:1007C00043425841E6E7C04600100240FFFFFFEFFA
:1007D00000700040002002400040FFFFF0B5CE4610
:1007E000474680B5036883B00400DA0736D50C218C
:1007F000C848C2680A40082A00D1D6E0C268114041
:100800000C2900D1CDE0802263685202934200D1CE
:1008100074E1A021C9028B4200D10BE2BD4DBE485C
:1008200029680140296029680A400192019ABB4960
:100830002A680A402A60002B00D063E1FFF728FEF7
:1008400080260700B60205E0FFF722FEC01B6428E1
:1008500000D9ABE12B683342F6D123689A072BD538
:100860000C21AC48C2680A40042A00D17AE1C2686F
:1008700011400C2900D171E1E268002A00D129E180
:100880000921A44F04253B688B4313433B60FFF7CA
:10089000FFFD060005E0FFF7FBFD801B022800D9E5
:1008A00084E13B681D42F6D07A6823699C491B02AB
:1008B0000A4013437B602368DA0645D41A0717D52C
:1008C0006369944D002B00D1F1E001222B6D0226CB
:1008D00013432B65FFF7DCFD070005E0FFF7D8FDAC
:1008E000C01B022800D961E12B6D1E42F6D023689F
:1008F0005B0700D482E08023864A5B05916B00256C
:10090000194203D1916B01350B4393638027854EC8
:100910007F0033683B4200D138E18022A368520057
:1009200093424DD0002B00D156E1A021C9008B424B
:1009300000D189E1774B7C491A6D0A401A651A6D1E
:100940007A490A401A653FE00C22724DEB681A4260
:1009500000D178E0A369002B00D129E180232A6827
:100960005B0013432B60FFF793FD80260700B60062
:1009700005E0FFF78DFDC01B022800D916E12B68AA
:100980003342F6D06B686A4A1340226A13436B60A5
:100990006A68E36912021B06120A13436B6023683C
:1009A0008CE7C268D20300D42DE75A4A126892033A
:1009B00000D453E76268002A00D04FE701203DE0F1
:1009C000544A116D0B431365FFF762FD8026594BA6
:1009D0008146504FB600984606E0FFF759FD4B465A
:1009E000C01A404500D9E1E03B6D3342F5D0012DFE
:1009F00004D1484A5049936B0B409363636A002BC0
:100A00001BD00C22434DE9680A400C2AD6D0022B99
:100A100000D123E12B68494A802413402B60FFF763
:100A200037FDA404060005E0FFF732FD801B022815
:100A300000D9BBE02B682342F6D1002003B00CBCE8
:100A400090469946F0BD2B689B0502D5A369002B03
:100A5000B4D0E0222F4D206A6B68120213409842F6
:100A600000D8D4E0FFF77AFE0028A7D16A683049A1
:100A7000236A0A401A436A606968E2690902120639
:100A8000090A0A436A60234A5B0BD168802201335A
:100A900012029A4013000A062949120F8A5C0020AC
:100AA000D340284A1360FFF7C7FC236806E70122FA
:100AB0002B6D022693432B65FFF7EAFC070004E049
:100AC000FFF7E6FCC01B022870D82B6D1E42F7D141
:100AD00023680DE701220F4D04262B6893432B60FA
:100AE000FFF7D6FC070004E0FFF7D2FCC01B02288A
:100AF0005CD82B681E42F7D12368DDE605490A68F9
:100B000013430B60FFF7C4FC80250700014EAD02C4
:100B10001FE0C04600100240FFFFFEFFFFFFFBFF8B
:100B2000FFE0FFFF00700040FFFEFFFFFFFBFFFF45
:100B3000FF1FFFFF88130000FFFFFFEFFFFFFFFE17
:100B4000442A000800000020FFF7A2FCC01B642814
:100B50002CD833682B42F7D023687FE6C268D203D3
:100B600000D589E6564A1268520703D5E268012A81
:100B700000D023E7524822694168524D12022940B1
:100B80000A434260DA0600D498E6DDE633683B4368
:100B90003360FFF77DFC804633683B4200D0BCE603
:100BA000FFF776FC4346C01A6428F5D9032045E7D1
:100BB0002B68454A802613402B60FFF769FCB6007E
:100BC000070004E0FFF764FCC01B0228EED82B6886
:100BD0003342F7D1236871E6394E3B4A336D8027A3
:100BE00013403365336D394ABF0013403365FFF757
:100BF0004FFC374B8146984605E0FFF749FC4B46D2
:100C0000C01A4045D2D8336D3B42F6D1EFE66B684F
:100C1000304A134003436B606A68E36912021B06A3
:100C2000120A13436B60FFF799FD002800D0C5E658
:100C3000236A28E78021224BC90218680143196002
:100C400019680A431A605DE71D4B0139186DFF39B9
:100C500001431965196D0A431A65B5E62B681E4AEA
:100C6000802613402B60FFF713FCB604070004E056
:100C7000FFF70EFCC01B022898D82B683342F7D12F
:100C8000E16AA36AEA680B4314490A401343226BE2
:100C900080241343EB6080232A685B0413432B609A
:100CA000FFF7F6FB064D0600A40405E0FFF7F0FB96
:100CB000801B022800D979E72B682342F6D0BCE6D6
:100CC00000100240FFE0FFFFFFFEFFFFFFFBFFFF02
:100CD00088130000FF1FFFFFFFFFFFFEFFFF02FF63
:100CE0000C23244A10B5D1680B40082B2BD00C2BB9
:100CF00012D0042B07D08020536800021B045B0F26
:100D00000133984010BD10681B4BC006C017184037
:100D10001A4B9C466044F5E78B0219481B0FC45CD4
:100D20000902D368890F0131DB030ED41368DB0697
:100D300015D563011B1B9801C01AC00000190002E1
:100D4000FFF7E2F9DEE70F48DCE76001001B8301F3
:100D5000181AC00000190002FFF7D6F9D2E76301A4
:100D60001B1B9801C01AC00000198002FFF7CCF9C4
:100D7000C8E7C0460010024000E548FF0024F40028
:100D8000382A000800093D00F8B5CE464746012341
:100D90000C005A4980B50A6805001A40A2420CD2DC
:100DA0000A689A4322430A600A681340A34204D0A7
:100DB00001200CBC90469946F8BD2B689A0706D5D1
:100DC000F0204F49CA688243A8680243CA60DB0723
:100DD00028D54B4A6B681268022B56D0032B51D092
:100DE000012B67D09205E3D50321454EF2688A4373
:100DF0001343F360FFF74CFB6B680700022B49D0ED
:100E0000032B5AD0012B68D00C2398463D4B9946B2
:100E100004E0FFF73DFBC01B484539D84246F36864
:100E20001A42F6D10121354A13680B40A34205D975
:100E300013688B43136013681942B9D12B685A07A2
:100E400006D52F493048CA680240E8680243CA60A4
:100E50001B0707D52A492B69CA682C48DB000240CA
:100E60001343CB60FFF73CFF254B294ADB681B0689
:100E70001B0FD35CD840274B18600020FFF7DCFA2B
:100E8000002096E79201AFD492E79203ACD48FE7AB
:100E900003208EE70A3398461A4B994604E0FFF781
:100EA000F7FAC01B4845F3D84246F3681340082BB5
:100EB000F5D1B7E7520797D47AE709339846114B33
:100EC000994604E0FFF7E4FAC01B4845E0D84246E3
:100ED000F36813400C2BF5D1A4E70B339846094B6C
:100EE000994604E0FFF7D4FAC01B4845D0D84246E3
:100EF000F3681340042BF5D194E7C046002002406C
:100F00000010024088130000FFF8FFFFFFC7FFFF3B
:100F1000442A000800000020014B18687047C046B2
:100F200000000020044B054ADB685B055B0FD35CC7
:100F3000034A1068D840704700100240542A000845
:100F400000000020044B054ADB689B045B0FD35C68
:100F5000034A1068D840704700100240542A000825
:100F600000000020F8B5CE464746036880B504006F
:100F70009A062ED5802300205C4A5B05916B804643
:100F8000194204D1916B0B43936301239846802649
:100F9000574D76002B68334244D06568C020C0218D
:100FA0002F002A00514E80033368890207400A400F
:100FB00003409F4256D08A424AD0336D194000D038
:100FC0008FE04A490B6D1A4343460A65012B39D01D
:100FD00023689A0706D50C204449CA6C8243A0684E
:100FE0000243CA645A0706D540494248CA6C0240C7
:100FF000E0680243CA641A0706D53C493E48CA6CF9
:10100000024020690243CA6400201B0606D5374A05
:101010003A49D36C0B4061690B43D3640CBC9046D6
:101020009946F8BD2B6833432B60FFF731FA070070
:1010300004E0FFF72DFAC01B642850D82B68334218
:10104000F7D0AAE78B6B2E4A13408B632368C0E767
:10105000336801209B03E1D4336D134036D09342B3
:1010600005D130E0336D194028D0914226D0236855
:101070009B0623D580211D4E0903306D376D214B12
:1010800039433165316D204F034039403165336557
:10109000C30513D5FFF7FCF980251C4B0700AD00F5
:1010A000994604E0FFF7F4F9C01B484517D8336DA3
:1010B0002B42F7D0C022656892022A40C0239B02CF
:1010C0009A4200D07DE7C027BF032F40074A10494E
:1010D00013680B401F431760C022920271E7032080
:1010E0009CE7914200D16CE7C1E7C0460010024086
:1010F00000700040FFF3FFFFFFCFFFFFFFFFF3FF94
:10110000FFFFFFEFFFFFFCFFFFFFF7FF881300006B
:10111000FFFFCFFF10B5042851D03DD908282BD0B0
:10112000202837D1C0218024404A8902106D136DD8
:1011300064020B40A3423ED08024A402A34263D0A9
:101140008B4227D113680020234224D01368C02289
:1011500080219203134089038B4264D0934260D074
:10116000334A9446634458425841324B40421840F7
:10117000314B9C4660440EE0C0212C4A8901D36C5F
:101180000B402FD0802189018B4231D08022520127
:1011900093422AD0002010BD0228FBD10C23234A01
:1011A000D16C0B401ED0082B22D0042B1DD0002068
:1011B0000C2BF0D1106D8005C00FC003EBE7C021F0
:1011C0001A4A0901D36C0B400CD080242401A3429D
:1011D00025D08020C000834207D000208B42DAD186
:1011E000106DE8E7FFF79EFED5E7FFF779FDD2E740
:1011F00004201368184043425841104B40421840A5
:101200000F4B9C466044C6E70223184043425841B6
:101210000C4B404218400C4B9C466044BBE71368A3
:10122000E8E70A48B7E70A48B5E7C04600100240B9
:101230000000F0FFC0BDF0FF80841E0000DC0BFF4B
:101240000024F400786FFFFF8890000090D0030026
:1012500020A10700F0B5C646904600B51D00060067
:101260000C00FFF715F943460700002B12D1326836
:1012700001E06B1C17D193682340A342F9D10020F1
:1012800004BC9046F0BD002D15D0FFF701F9C01B3E
:10129000A8420FD8326801E06B1CF4D19368234058
:1012A000A342F9D0EBE7002D05D0FFF7F1F8C01B02
:1012B000A842DCD93268E02153688B43536013683D
:1012C000A0398B4380211360B36A89018B4206D118
:1012D000116807480140116011680B4313605123E6
:1012E0000122F2540022013BF2540320C8E7C04619
:1012F000FFDFFFFF70B5041E34D05123C35CDBB2A7
:10130000002B2AD051210223402022686354136805
:10131000A568834313606368A0692B43E5682B438A
:1013200025692B4365692B43E5692B43256A2B43CC
:10133000A56A2B438025AD0005402B431360042391
:10134000000C0340606A03435360E36A00201361AA
:10135000002363650133635470BD5022835401F050
:1013600065F9CFE70120F7E7F0B551261D00835D51
:101370000400DBB283B00220012B5DD100295DD0D7
:101380000138002A58D04F30275C012F00D1B5E03A
:1013900023541133A355002380206365A286E2867F
:1013A000A26AE364A364A363A387E387216323683A
:1013B0008001824206D11868514E3040186018688A
:1013C000104318608020A6680002864204D1802065
:1013D0001E68C0013043186040201E68304202D1B0
:1013E0001E6830431860E6686068002E58D10028F7
:1013F00000D07EE0481C20630978D960E18E013975
:1014000089B2E186E18E00290DD11AE0226B531CCE
:10141000236312782368DA60E28E013A92B2E286A0
:10142000E28E002A0CD02B00002202212000FFF7C0
:1014300011FF0028EAD0032003B0F0BD0120FBE734
:10144000A26A802189018A4204D18022196852014E
:101450000A431A602B00002202212000FFF7FAFE47
:10146000002817D12B00012280212000FFF7F2FE77
:1014700000280FD1A368002B05D12368DA680192F8
:101480009B680193019B51230122E2540022013BFE
:10149000E254D1E72022636D032013436365CBE759
:1014A000002822D108880231D8602163E18E0139F9
:1014B00089B2E186E18E00290DD1C2E7226B236853
:1014C00011880232D9602263E28E013A92B2E2863A
:1014D000E28E002AB4D02B00002202212000FFF768
:1014E000B9FE0028EAD00320A6E7E08E0128E1D16A
:1014F000D8E7E08E012800D084E77BE702209BE755
:10150000FFDFFFFF70B582B004006D460020E88069
:101510005130255C012D04D0255C4F38222D00D0A0
:101520007BE00120002978D0002A76D0002B74D0EF
:101530005025665D012E00D1F6E060555030255CE7
:10154000012D01D13135255400206065A064E0648F
:101550008020A263A26AE387A387A386E386216330
:1015600023688001824206D11868AC4D284018607B
:1015700018681043186040201D68284202D11D6879
:10158000284318608025E66860682D01AE4252D07D
:10159000002847D082256D00A84240D0E18E002966
:1015A00000D193E0E38E002B00D102E1802580265C
:1015B000AD01760128E0236B5A1C22631B78226858
:1015C000D360E38E013B9BB2E386E38E002B05D113
:1015D000A36AAB4202D1136833431360069B002217
:1015E00001212000FFF736FE002815D12368DA68B4
:1015F000A36B591CA1631A70E38F013B9BB2E38775
:10160000E38E002B00D1D3E0069B002202212000B4
:10161000FFF720FE0028CED0032002B070BDE58E7B
:10162000012DBBD14D1C25630978D960E18E0139AC
:1016300089B2E186B2E7002800D077E00D88023158
:10164000DD602163E18E013989B2E186E18E0029F6
:1016500000D18AE0E38E002B00D1D4E080258026E3
:10166000AD01760128E0236B226819880233D1602E
:101670002363E38E013B9BB2E386E38E002B05D10F
:10168000A36AAB4202D1136833431360069B002266
:1016900001212000FFF7DEFD0028BDD12368DA68B4
:1016A000A36B1A800233A363E38F013B9BB2E387F2
:1016B000E38E002B00D1A5E0069B00220221200032
:1016C000FFF7C8FD0028CED00320A6E780218901BE
:1016D0008A4234D0069B002201212000FFF7BAFD88
:1016E000002800D098E72368A26BDB681370E38FB3
:1016F000013B9BB2E3878023A26A9B019A4224D0DC
:10170000069B012280212000FFF7A4FD002849D17B
:1017100051230122E2548022A36A920193425ED0B7
:1017200050230022E25478E7022076E782256D00FC
:10173000A8428BD1E58E012D00D087E77EE780227D
:10174000196852010A431A60C4E7069B002201216E
:101750002000FFF77FFD002859D16A462368DB6827
:101760009BB2D3806B46DB88CAE7802189018A421D
:1017700004D18022196852010A431A60069B002294
:1017800001212000FFF766FD002800D044E7236810
:10179000DA68A36B1A800233A363E38F013B9BB229
:1017A000E387A8E72022636D03201343636534E7D2
:1017B000606800289FD1069B002201212000FFF7CE
:1017C00049FD002800D027E72368DA68A36B591C7D
:1017D000A1631A70E38F013B9BB2E3878BE722681A
:1017E0009168C9069CD50225616D29436165116820
:1017F0000A4D2940116011680B4313605023E054D7
:1018000001200AE76068002800D074E7B6E70222EA
:10181000636D032013436365FFE6C046FFDFFFFFF0
:10182000F0B54746CE4680B585B004001E000020C6
:101830006B46D88151239846E35C0225DBB2012B2D
:101840005AD100295ED0013D002A55D04F35675D41
:10185000012F00D17FE06355454621336355802336
:101860006065A064E287E0642063A086E086A068EB
:10187000A163A2871B02984204D12568774F2B6889
:101880003B402B608025A36AAD01AB420AD125689D
:10189000734FA9462D683D402F004D462F602F689D
:1018A0001F432F60822567686D00AF4247D04021FB
:1018B00022681068014202D1106801431160E1689A
:1018C000002921D0E18F01290DD847E02268A36BC0
:1018D000D16819800233A363E38F013B9BB2E38796
:1018E000E38F012B39D93300002201212000FFF7BB
:1018F000B1FC0028EAD00325280005B00CBC9046B6
:101900009946F0BD0125F7E7E28F012A0DD850E096
:101910002368DA68A36B591CA1631A70E38F013B3B
:101920009BB2E387E38F012B42D9330000220121D0
:101930002000FFF78FFC0028EAD00325DCE7002811
:10194000B5D150230096E054130020000A00FFF7A1
:10195000D9FD0500D0E70225CEE7A36A80218901E1
:101960008B422BD03300002201212000FFF772FCB4
:10197000051EC0D12268E168A36BD268002923D17B
:10198000591CA1631A708022E38F9201013B9BB224
:10199000E387A36A93421BD082226168520091427E
:1019A0002BD051230122E25450230022E254A3E71A
:1019B000A36A802292019342D4D1226880231168C5
:1019C0005B010B431360CDE71A800233A363DAE7B0
:1019D0003300002201212000FFF73CFC002836D113
:1019E0006A4623686168DB689BB2D3816B468222BA
:1019F000DB895200A36A914208D18021A2680902C2
:101A00008A421ED08021C9008A421AD05122012167
:101A1000A154802292019342C6D122689168C906DE
:101A2000C2D50220616D01250143616511680C4832
:101A30000140116011680B43136050230022E254EF
:101A40005AE7402021680A6882430A60DEE70222E2
:101A5000636D0325134363654EE7C046FFBFFFFF79
:101A6000FFDFFFFFF8B50169836805680B43416933
:101A70002A680B43C1699E4E0B439E4904000A40ED
:101A800013432B606B689C4A1340C26813436B601E
:101A9000AA688369B54216D0016A0B4397490A4088
:101AA0001343AB60964B9D4200D17CE00220FFF7D0
:101AB00031FB2368B34204D08022E16912029142D3
:101AC0004AD00120F8BD8D490A40C021134380222D
:101AD000AB608C4B0901DB6CD2000B40934200D110
:101AE00090E01BD980221201934200D198E08B42F2
:101AF00000D0F2E00220FFF70DFB2768AF4200D1D3
:101B0000CEE08023E2691B029A4200D09BE0802352
:101B100061685B0248089C46604411E0002B00D0DD
:101B2000DBE00220FFF7F6FA2768AF421AD08023E5
:101B3000E2691B029A4262D1616840004B08C018FA
:101B4000FEF7E2FA0F213B000207520F88430243DF
:101B500092B20020DA60B5E700220120DA60B1E736
:101B6000002DAED1FFF7DEF903000020002BA9D035
:101B70006268510089189942A3D811039942A0D3F1
:101B800000275608190E1802801979410023FEF724
:101B900047FB5D4BC2185D4B9A4200D991E7236821
:101BA000D86000208EE7574B0220DA6C0C231340DC
:101BB000574AD55CFFF7AEFA27683B00B74272D0B0
:101BC0008022E1691202914205D1082DC4D8514A00
:101BD000AD0052599746082D00D972E74E4BAD0023
:101BE0005B599F46FFF7AEF9616824684B081818E7
:101BF000FEF78AFA0004000CE060002062E7FFF7BD
:101C000091F9F1E70220FFF785FA2368AB4260D033
:101C10008023E2691B029A423FD0FFF761F8E3E7B5
:101C20000220FFF777FA2768AF4248D08023E269A5
:101C30001B029A4229D0334B61681B684808DB06B7
:101C40000ED5364B03E0802361681B0248089C4692
:101C50006044FEF759FA0004000CF860002031E7F8
:101C60002F4BF4E7FFF76EF9636840005B0861688B
:101C7000C018FEF749FA0F210207520F88430243AA
:101C8000236892B20020DA601CE71E4B61681B6873
:101C90004808DB062AD5234B3DE7FFF721F8E3E7A9
:101CA00080231B0264E7022D09D000D858E7042DD9
:101CB0000FD080231B02082D00D159E701E7184AF5
:101CC000104B94461B681848DB06DB17034063443F
:101CD0004EE7FFF705F8030047E70220FFF71AFA7F
:101CE0002368034A934200D0E6E6EAE60F4B12E788
:101CF00000480040F369FFEFFFCFFFFFFFF4FFFF55
:101D0000004400400010024000FDFFFFFFFC0F00F8
:101D1000A42800085C2800088028000800093D006D
:101D20000024F40000127A0000E548FF0048E801B2
:101D3000436A30B5DA0706D50168284C4A68224064
:101D4000846A22434A609A0706D50168244C4A688F
:101D50002240C46A22434A605A0706D50168214CD2
:101D60004A682240046B22434A601A0706D501687C
:101D70001D4C4A682240446B22434A60DA0606D56D
:101D800001681A4C8A682240846B22438A609A0652
:101D900006D50168164C8A682240C46B22438A60CB
:101DA0005A060AD50168134D4A68046C2A4022433A
:101DB0004A6080225203944209D01B0606D502686D
:101DC0000D4953680B40816C0B43536030BD4A682A
:101DD0000A4C2240446C22434A60EEE7FFFFFDFFBD
:101DE000FFFFFEFFFFFFFBFFFF7FFFFFFFEFFFFF98
:101DF000FFDFFFFFFFFFEFFFFFFFF7FFFFFF9FFF8B
:101E0000F0B5C64607000C001600984600B5069DC2
:101E10003A6801E06B1C0AD1D36923401B1B59426D
:101E20004B41B342F6D0002004BC9046F0BD002DDB
:101E300006D0FEF72DFB4346C01AA842E8D93A68FF
:101E40001368094903200B4013609368A331FF31E5
:101E50008B43936020236922BB540132BB54002280
:101E60004833FA54E0E7C0465FFEFFFFF0B547464F
:101E7000CE4680B51F006923C35C040083B00D000B
:101E800016000220202B47D100294AD00138002A11
:101E900042D08023A2685B019A4244D06823E25C6E
:101EA000012A51D00122E25400232032E366693333
:101EB000E254FEF7EDFA5023E6520233E652802355
:101EC0005B01804652269946A35B002B16D0A35B8C
:101ED0000097013B9BB2A353002243468021200080
:101EE000FFF78EFF002824D1A26823684A4522D03C
:101EF0002A7801359A62A35B002BE8D1009743460C
:101F0000002240212000FFF77BFF002811D1692328
:101F10002022E254013BE05403B00CBC90469946A9
:101F2000F0BD0120F8E72369002BB7D10142B5D0FD
:101F3000F2E70320F0E72269002AD9D12A88023586
:101F4000D205D20D9A62BFE70220E5E7002330B543
:101F50000400C36683B0FEF79BFA236805001A6885
:101F600012070DD41B685B0719D420236922A354E0
:101F70000132A354002200204833E25403B030BDA4
:101F800080210D4B00220093890303002000FFF7FE
:101F900037FF00280ED123681B685B07E5D5802139
:101FA000054B00220093C9032B002000FFF728FFF8
:101FB0000028DAD00320E1E7FFFFFF0110B5041E7F
:101FC00025D06923C35CDBB2002B2BD069232422EC
:101FD0000121E254226813688B431360636A002B6B
:101FE00017D12000FFF73EFD012810D023681049CB
:101FF0005A6820000A402A215A609A688A439A60E7
:102000001A6829390A431A60FFF7A0FF00E001208F
:1020100010BD2000FFF78CFE2000FFF723FD0128F4
:10202000E4D1F4E76822835400F030FBCEE7C046E9
:10203000FFB7FFFF30B583B000236A4601AD1370D0
:10204000114C44332B708021A02000228900C00550
:10205000FEF772FB6423012229002000FFF784F9B8
:102060006423012269462000FFF7DAFB8021A020CB
:1020700001228900C005FEF75FFB6B461B78FF2B32
:10208000E1D103B030BDC046A4000020F8B58026E1
:10209000A02507000C00B600ED05FFF7CBFF3100CF
:1020A00028000022FEF748FB3900A2B2642304484E
:1020B000FFF75AF9310028000122FEF73DFBF8BD79
:1020C000A4000020F0B585B005000F001600002127
:1020D0000C2201A81C0000F0ACFB6A461123290069
:1020E000137057709470D67001A8220000F098FB0E
:1020F000FFF7A0FF211DC9B26846FFF7C7FF05B073
:10210000F0BDC046F0B583B000236A4601AD137040
:1021100044332B7006000F000023194CFF2B16D000
:102120008021A02000228900C005FEF705FB642362
:10213000012229002000FFF717F901230122694637
:102140002000FFF76DFB6B461B78FF2B0ED1B2B260
:10215000642339002000FFF763FB8021A0200122C7
:102160008900C005FEF7E8FA03B0F0BD8021A02089
:1021700001228900C005FEF7DFFA6B461B78CDE728
:10218000A4000020F0B5CE46474680B583B001AB31
:1021900098468026A0257723424604008946B6004B
:1021A000ED051370310028000022FEF7C5FA0B4F31
:1021B0004146642301223800FFF7D6F8A2B2642317
:1021C00049463800FFF72CFB012231002800FEF7BA
:1021D000B3FA03B00CBC90469946F0BDA4000020B1
:1021E00010B5094C012202212000FEF7A5FA0120BA
:1021F000FEF754F9002202212000FEF79DFA052087
:10220000FEF74CF910BDC04600040050002330B565
:1022100083B001AC23806B46DD1C33232B70FFF7AA
:1022200009FF01212800FFF731FF21000220FFF7FD
:1022300069FF0D2322781340052B06D09A23022133
:102240005B0020002380FFF721FF03B030BDC046B4
:1022500070B582B000246B466A469C700B4B06003A
:102260000D00138068460221FFF710FF6A463223F3
:1022700013700823548008216846567015715371F5
:102280009371D371FFF702FF02B070BD1503000018
:1022900010B582B06B460400D81D012301210370E4
:1022A000FFF7F4FEFFF7C6FE21000820FFF72AFF24
:1022B00002B010BD802370B55B0082B0984201D09F
:1022C00002B070BD1D4B1B78002BF9D0202301AC50
:1022D000012120002370FFF7D9FE194D08202900A5
:1022E000FFF710FFAB78DB0606D420230121200086
:1022F0002370FFF7CBFEE3E7124E61203100FFF7BA
:1023000041FF0023A370104B200002212380FFF720
:10231000BDFE0E4D642309220D492800FFF7A6FDDE
:102320003100642361222800FFF7A0FD642302220C
:1023300008492800FFF79AFDD7E7C0462000002093
:10234000280000203000002015030000FC000020C1
:102350005C2A00088C2A00082449254A0B6810B51D
:102360001A4080231B0113430B60012398B00B9389
:10237000A023DB020C9380235B021593A0235B0355
:10238000169380230224DB030BA814941793FEF703
:1023900025FA002800D0FEE70F2302900093039057
:1023A0000C3B0490012168460193FEF7EDFC0028E8
:1023B00000D0FEE7079005A80594FEF7D3FD041EA4
:1023C00000D0FEE7FEF7A8FDFA218900FDF79CFE8C
:1023D000FEF7A8F80420FEF7C1F801202200210032
:1023E0004042FEF769F818B010BDC04600700040CA
:1023F000FFE7FFFFF0B5CE46474680B589B0FEF750
:102400002FF8FFF7A9FF042201256C4BA026D96AFB
:10241000A0201143D962D96AB6000A400092009AFE
:10242000DA6AC0052A43DA62DA6A03AC2A4001920A
:10243000019A0222D96A1143D962DB6A31001A403B
:1024400002920122029BFEF777F9002201215C48EB
:10245000FEF772F9012202215948FEF76DF9A0201A
:10246000039600262100C0056560E560A660FEF7C2
:1024700089F803232100524803936560E560A66054
:10248000FEF780F88023A0205B0003934D4B2100D2
:10249000C0056360A560FEF775F8002200210720E3
:1024A000FEF70AF80720FEF733F8474D474B2800A0
:1024B0002B60E1239B026B600C23AE60EE602E610B
:1024C0006B61AE61EE612E626E62FFF777FD0028F0
:1024D00000D0FEE73E4B3F4A98601A6082225200CD
:1024E0005A60FC329A61D93AFF3AD8601861586153
:1024F000DA61186258629862213A1800DA62FEF7CF
:10250000F9FE002800D0FEE7A02001228021C005AE
:10251000FEF712F9002201212948FEF70DF9FA20F1
:102520004000FDF7BBFFFFF75BFE2000FFF7B0FEAA
:102530006378442B02D1A378632B06D06423112245
:1025400025492800FFF792FCFEE7244B0026984619
:10255000C1235B001127994643463A009919200090
:1025600000F05EF9FFF766FD0D236B44180021783B
:10257000FFF78CFD23780133F618B6B24E45EBD940
:102580002023012120002370FFF780FDFFF73EFE8E
:10259000134B00220393402104232000FFF792FDF8
:1025A00061210020FFF754FE01220E4B0E491A70E4
:1025B000280064231032FFF759FCFEE700100240A8
:1025C0000004005000002110FC00002000440040E6
:1025D000A4000020003001407C2A0008B428000834
:1025E000350F933020000020682A000801210E4B8F
:1025F00010B55A6B05200A435A638022996B520525
:102600000A439A63002100224042FDF755FF022051
:10261000002200214042FDF74FFF0120002200214F
:102620004042FDF749FF10BD0010024070B5144B49
:10263000026886B09A4201D006B070BD8023114A6C
:102640005B01516BA0200B435363C0235B01022449
:10265000019303260123002501A9C00503930294D9
:1026600004960595FDF78EFF082301A906480193FE
:102670000294039404960595FDF784FFDCE7C046B9
:1026800000300140001002400004005000B50D4B26
:10269000026887B09A4201D007B000BD80230A4A81
:1026A0009B02916B09480B439363C0230193BE3B8C
:1026B00002930322002301A9039304920593FDF7DB
:1026C00061FFE9E7004400400010024000040050B0
:1026D0007047C046FEE7C0467047C0467047C046D8
:1026E00010B5FDF7CDFEFDF749FF10BD802010B5F8
:1026F0004000FEF727F810BD8022104B52001968E9
:102700000A431A60DA680E490A40DA601A680D490D
:102710000A4001211A609A688A439A601A680A4935
:102720000A401A60DA6809490A40DA6000221A6130
:102730008022074B12059A607047C0460010024085
:102740000C40FF88F6FFF6FEFFFFFBFFFFFF02FFD6
:1027500000ED00E01348854613480168090E134A4E
:10276000914205D112481349016013481349016091
:10277000002103E0124B5B58435004311148124BC7
:1027800042189A42F6D3114A02E000231360043241
:102790000F4B9A42F9D3FFF7AFFF00F01DF8FFF798
:1027A00029FEFEE700080020040000001F000000D2
:1027B0003410024001000000000001400000000051
:1027C000A02A0008000000200400002004000020CF
:1027D0006C010020FEE7000070B500260C4D0D4C8A
:1027E000641BA410A64209D1002600F02BF80A4D64
:1027F0000A4C641BA410A64205D170BDB300EB586F
:1028000098470136EEE7B300EB5898470136F2E7F8
:10281000982A0008982A0008982A00089C2A00088C
:10282000002310B59A4200D110BDCC5CC4540133D2
:10283000F8E703001218934200D170471970013372
:10284000F9E70000F8B5C046F8BC08BC9E467047E2
:0C285000F8B5C046F8BC08BC9E467047B6
:10285C00381B0008641C00088A1C0008581B000860
:10286C009A1C0008581B0008581B0008581B00082D
:10287C000E1B0008FE1B0008E41B0008361C000899
:10288C00C21A00081A1C0008C21A0008C21A000852
:10289C00C21A0008461C000800101010041010107A
:1028AC0002101010080000000702010101E84800A6
:1028BC00081300000000674B000811000400000022
:1028CC0018301011200C0003000702710005E848B5
:1028DC00000000051120010C421011200C1C80007E
:1028EC00B0100CE800530624DD000E11200A28005D
:1028FC0002C0080012002101710F11200B391212B5
:10290C00801A200000280CA4230D11200945030077
:10291C007D0100FF0609100611200250940A0611D1
:10292C002002540307091120055B40040478201091
:10293C0011210C007E641BBA580BDDCED6E6F600D6
:10294C001011210C0C030315F03F007E641BBA58C8
:10295C000B0F11210B18DDCED6E6F600030315F094
:10296C003F05112201031D0C11400800370900001E
:10297C00033320FE0832000000000000000517564B
:10298C0010CAF005171310CAF00811010400071043
:10299C00000007110203000A0000091110050004D1
:1029AC000A001F3109111105000BB42BB42B1011A7
:1029BC00120C010030FFFF203200000000616109A1
:1029CC001112050E61140000800A1120060005008A
:1029DC00070AFC80061120020B01DE0511200118EC
:1029EC00050F11200B1E301000E8004A06E979078C
:1029FC00FF0C1120082A020000128093014A0B11CF
:102A0C002007391010001A11480E0B11200747E34C
:102A1C0001008006011805112001508405112001C8
:102A2C005D070811400400350F93330003040608BA
:102A3C000C10182030000000000000000000000006
:102A4C000102030406070809000000000102030448
:102A5C0041542B4652414D453D0000004D31375FEE
:102A6C00414E4C20494E4954204F4B0D0A0000005A
:102A7C004D31375F414E4C20494E495420455252FE
:042A8C000D0A00002F
:082A9000D0D7FF7F0100000018
:042A9800E900000849
:042A9C00C10000086D
:042AA00080841E0010
:040000050800275573
:00000001FF
